{
  "contractName": "NFB",
  "abi": [
    {
      "inputs": [
        {
          "internalType": "address",
          "name": "_cd3fi",
          "type": "address"
        },
        {
          "internalType": "address",
          "name": "_factory",
          "type": "address"
        },
        {
          "internalType": "address",
          "name": "_cd3fiBUSDPair",
          "type": "address"
        }
      ],
      "stateMutability": "nonpayable",
      "type": "constructor"
    },
    {
      "anonymous": false,
      "inputs": [
        {
          "indexed": true,
          "internalType": "address",
          "name": "owner",
          "type": "address"
        },
        {
          "indexed": true,
          "internalType": "address",
          "name": "approved",
          "type": "address"
        },
        {
          "indexed": true,
          "internalType": "uint256",
          "name": "tokenId",
          "type": "uint256"
        }
      ],
      "name": "Approval",
      "type": "event"
    },
    {
      "anonymous": false,
      "inputs": [
        {
          "indexed": true,
          "internalType": "address",
          "name": "owner",
          "type": "address"
        },
        {
          "indexed": true,
          "internalType": "address",
          "name": "operator",
          "type": "address"
        },
        {
          "indexed": false,
          "internalType": "bool",
          "name": "approved",
          "type": "bool"
        }
      ],
      "name": "ApprovalForAll",
      "type": "event"
    },
    {
      "anonymous": false,
      "inputs": [
        {
          "indexed": true,
          "internalType": "address",
          "name": "from",
          "type": "address"
        },
        {
          "indexed": true,
          "internalType": "address",
          "name": "to",
          "type": "address"
        },
        {
          "indexed": true,
          "internalType": "uint256",
          "name": "tokenId",
          "type": "uint256"
        }
      ],
      "name": "Transfer",
      "type": "event"
    },
    {
      "inputs": [],
      "name": "_bondPrice",
      "outputs": [
        {
          "internalType": "uint256",
          "name": "",
          "type": "uint256"
        }
      ],
      "stateMutability": "view",
      "type": "function"
    },
    {
      "inputs": [
        {
          "internalType": "address",
          "name": "to",
          "type": "address"
        },
        {
          "internalType": "uint256",
          "name": "tokenId",
          "type": "uint256"
        }
      ],
      "name": "approve",
      "outputs": [],
      "stateMutability": "nonpayable",
      "type": "function"
    },
    {
      "inputs": [
        {
          "internalType": "address",
          "name": "owner",
          "type": "address"
        }
      ],
      "name": "balanceOf",
      "outputs": [
        {
          "internalType": "uint256",
          "name": "",
          "type": "uint256"
        }
      ],
      "stateMutability": "view",
      "type": "function"
    },
    {
      "inputs": [],
      "name": "currBatchToBeMinted",
      "outputs": [
        {
          "internalType": "uint8",
          "name": "",
          "type": "uint8"
        }
      ],
      "stateMutability": "view",
      "type": "function"
    },
    {
      "inputs": [
        {
          "internalType": "uint256",
          "name": "tokenId",
          "type": "uint256"
        }
      ],
      "name": "getApproved",
      "outputs": [
        {
          "internalType": "address",
          "name": "",
          "type": "address"
        }
      ],
      "stateMutability": "view",
      "type": "function"
    },
    {
      "inputs": [
        {
          "internalType": "address",
          "name": "owner",
          "type": "address"
        },
        {
          "internalType": "address",
          "name": "operator",
          "type": "address"
        }
      ],
      "name": "isApprovedForAll",
      "outputs": [
        {
          "internalType": "bool",
          "name": "",
          "type": "bool"
        }
      ],
      "stateMutability": "view",
      "type": "function"
    },
    {
      "inputs": [],
      "name": "name",
      "outputs": [
        {
          "internalType": "string",
          "name": "",
          "type": "string"
        }
      ],
      "stateMutability": "view",
      "type": "function"
    },
    {
      "inputs": [
        {
          "internalType": "uint256",
          "name": "tokenId",
          "type": "uint256"
        }
      ],
      "name": "ownerOf",
      "outputs": [
        {
          "internalType": "address",
          "name": "",
          "type": "address"
        }
      ],
      "stateMutability": "view",
      "type": "function"
    },
    {
      "inputs": [
        {
          "internalType": "address",
          "name": "from",
          "type": "address"
        },
        {
          "internalType": "address",
          "name": "to",
          "type": "address"
        },
        {
          "internalType": "uint256",
          "name": "tokenId",
          "type": "uint256"
        }
      ],
      "name": "safeTransferFrom",
      "outputs": [],
      "stateMutability": "nonpayable",
      "type": "function"
    },
    {
      "inputs": [
        {
          "internalType": "address",
          "name": "from",
          "type": "address"
        },
        {
          "internalType": "address",
          "name": "to",
          "type": "address"
        },
        {
          "internalType": "uint256",
          "name": "tokenId",
          "type": "uint256"
        },
        {
          "internalType": "bytes",
          "name": "data",
          "type": "bytes"
        }
      ],
      "name": "safeTransferFrom",
      "outputs": [],
      "stateMutability": "nonpayable",
      "type": "function"
    },
    {
      "inputs": [
        {
          "internalType": "address",
          "name": "operator",
          "type": "address"
        },
        {
          "internalType": "bool",
          "name": "approved",
          "type": "bool"
        }
      ],
      "name": "setApprovalForAll",
      "outputs": [],
      "stateMutability": "nonpayable",
      "type": "function"
    },
    {
      "inputs": [
        {
          "internalType": "bytes4",
          "name": "interfaceId",
          "type": "bytes4"
        }
      ],
      "name": "supportsInterface",
      "outputs": [
        {
          "internalType": "bool",
          "name": "",
          "type": "bool"
        }
      ],
      "stateMutability": "view",
      "type": "function"
    },
    {
      "inputs": [],
      "name": "symbol",
      "outputs": [
        {
          "internalType": "string",
          "name": "",
          "type": "string"
        }
      ],
      "stateMutability": "view",
      "type": "function"
    },
    {
      "inputs": [
        {
          "internalType": "address",
          "name": "from",
          "type": "address"
        },
        {
          "internalType": "address",
          "name": "to",
          "type": "address"
        },
        {
          "internalType": "uint256",
          "name": "tokenId",
          "type": "uint256"
        }
      ],
      "name": "transferFrom",
      "outputs": [],
      "stateMutability": "nonpayable",
      "type": "function"
    },
    {
      "stateMutability": "payable",
      "type": "receive"
    },
    {
      "inputs": [
        {
          "internalType": "address payable",
          "name": "_to",
          "type": "address"
        },
        {
          "internalType": "uint256",
          "name": "amnt",
          "type": "uint256"
        }
      ],
      "name": "transferAmount",
      "outputs": [],
      "stateMutability": "payable",
      "type": "function"
    },
    {
      "inputs": [
        {
          "internalType": "address",
          "name": "_pairAddress",
          "type": "address"
        }
      ],
      "name": "changePairAddress",
      "outputs": [],
      "stateMutability": "nonpayable",
      "type": "function"
    },
    {
      "inputs": [],
      "name": "mintNFB",
      "outputs": [],
      "stateMutability": "nonpayable",
      "type": "function"
    },
    {
      "inputs": [],
      "name": "mintNFBForSponsor",
      "outputs": [],
      "stateMutability": "nonpayable",
      "type": "function"
    },
    {
      "inputs": [
        {
          "internalType": "uint256",
          "name": "tokenId",
          "type": "uint256"
        }
      ],
      "name": "buyNFBWithoutCD3d",
      "outputs": [],
      "stateMutability": "payable",
      "type": "function"
    },
    {
      "inputs": [
        {
          "internalType": "uint256",
          "name": "tokenId",
          "type": "uint256"
        }
      ],
      "name": "buyNFBWithCD3d",
      "outputs": [],
      "stateMutability": "payable",
      "type": "function"
    },
    {
      "inputs": [
        {
          "internalType": "uint256",
          "name": "tokenId",
          "type": "uint256"
        }
      ],
      "name": "tokenURI",
      "outputs": [
        {
          "internalType": "string",
          "name": "",
          "type": "string"
        }
      ],
      "stateMutability": "view",
      "type": "function"
    }
  ],
  "bytecode": "0x60806040526001600760146101000a81548160ff021916908360ff1602179055506000600760156101000a81548161ffff021916908361ffff1602179055503480156200004b57600080fd5b50604051620040c4380380620040c483398181016040528101906200007191906200032d565b6040518060400160405280601181526020017f4e6f6e2046756e6769626c6520426f6e640000000000000000000000000000008152506040518060400160405280600381526020017f4e464200000000000000000000000000000000000000000000000000000000008152508160009080519060200190620000f592919062000266565b5080600190805190602001906200010e92919062000266565b50505033600760006101000a81548173ffffffffffffffffffffffffffffffffffffffff021916908373ffffffffffffffffffffffffffffffffffffffff16021790555082600a60006101000a81548173ffffffffffffffffffffffffffffffffffffffff021916908373ffffffffffffffffffffffffffffffffffffffff16021790555082600b60006101000a81548173ffffffffffffffffffffffffffffffffffffffff021916908373ffffffffffffffffffffffffffffffffffffffff16021790555081600c60006101000a81548173ffffffffffffffffffffffffffffffffffffffff021916908373ffffffffffffffffffffffffffffffffffffffff16021790555080600960006101000a81548173ffffffffffffffffffffffffffffffffffffffff021916908373ffffffffffffffffffffffffffffffffffffffff16021790555042600d8190555050505062000436565b8280546200027490620003b7565b90600052602060002090601f016020900481019282620002985760008555620002e4565b82601f10620002b357805160ff1916838001178555620002e4565b82800160010185558215620002e4579182015b82811115620002e3578251825591602001919060010190620002c6565b5b509050620002f39190620002f7565b5090565b5b8082111562000312576000816000905550600101620002f8565b5090565b60008151905062000327816200041c565b92915050565b6000806000606084860312156200034357600080fd5b6000620003538682870162000316565b9350506020620003668682870162000316565b9250506040620003798682870162000316565b9150509250925092565b6000620003908262000397565b9050919050565b600073ffffffffffffffffffffffffffffffffffffffff82169050919050565b60006002820490506001821680620003d057607f821691505b60208210811415620003e757620003e6620003ed565b5b50919050565b7f4e487b7100000000000000000000000000000000000000000000000000000000600052602260045260246000fd5b620004278162000383565b81146200043357600080fd5b50565b613c7e80620004466000396000f3fe60806040526004361061012e5760003560e01c80634c3d6072116100ab57806395d89b411161006f57806395d89b41146103b9578063a22cb465146103e4578063b88d4fde1461040d578063c87b56dd14610436578063d7081e0314610473578063e985e9c51461048f57610135565b80634c3d6072146102c05780636352211e146102eb57806370a08231146103285780638873b15f146103655780638dffaee41461038e57610135565b806313d300ff116100f257806313d300ff146102245780631f733e7b1461024057806323b872dd146102575780633247a7f21461028057806342842e0e1461029757610135565b806301ffc9a71461013a57806306fdde0314610177578063081812fc146101a2578063095ea7b3146101df5780630f6b5d331461020857610135565b3661013557005b600080fd5b34801561014657600080fd5b50610161600480360381019061015c9190612913565b6104cc565b60405161016e9190612e7e565b60405180910390f35b34801561018357600080fd5b5061018c6105ae565b6040516101999190612e99565b60405180910390f35b3480156101ae57600080fd5b506101c960048036038101906101c491906129b4565b610640565b6040516101d69190612db7565b60405180910390f35b3480156101eb57600080fd5b50610206600480360381019061020191906128ae565b610686565b005b610222600480360381019061021d91906129b4565b61079e565b005b61023e600480360381019061023991906129b4565b6109aa565b005b34801561024c57600080fd5b50610255610a43565b005b34801561026357600080fd5b5061027e600480360381019061027991906127a8565b610b13565b005b34801561028c57600080fd5b50610295610b73565b005b3480156102a357600080fd5b506102be60048036038101906102b991906127a8565b610ceb565b005b3480156102cc57600080fd5b506102d5610d0b565b6040516102e291906130fb565b60405180910390f35b3480156102f757600080fd5b50610312600480360381019061030d91906129b4565b610d11565b60405161031f9190612db7565b60405180910390f35b34801561033457600080fd5b5061034f600480360381019061034a91906126de565b610dc3565b60405161035c91906130fb565b60405180910390f35b34801561037157600080fd5b5061038c600480360381019061038791906126de565b610e7b565b005b34801561039a57600080fd5b506103a3610f19565b6040516103b09190613116565b60405180910390f35b3480156103c557600080fd5b506103ce610f2c565b6040516103db9190612e99565b60405180910390f35b3480156103f057600080fd5b5061040b60048036038101906104069190612872565b610fbe565b005b34801561041957600080fd5b50610434600480360381019061042f91906127f7565b610fd4565b005b34801561044257600080fd5b5061045d600480360381019061045891906129b4565b611036565b60405161046a9190612e99565b60405180910390f35b61048d60048036038101906104889190612730565b611048565b005b34801561049b57600080fd5b506104b660048036038101906104b1919061276c565b6110fc565b6040516104c39190612e7e565b60405180910390f35b60007f80ac58cd000000000000000000000000000000000000000000000000000000007bffffffffffffffffffffffffffffffffffffffffffffffffffffffff1916827bffffffffffffffffffffffffffffffffffffffffffffffffffffffff1916148061059757507f5b5e139f000000000000000000000000000000000000000000000000000000007bffffffffffffffffffffffffffffffffffffffffffffffffffffffff1916827bffffffffffffffffffffffffffffffffffffffffffffffffffffffff1916145b806105a757506105a682611190565b5b9050919050565b6060600080546105bd906135d7565b80601f01602080910402602001604051908101604052809291908181526020018280546105e9906135d7565b80156106365780601f1061060b57610100808354040283529160200191610636565b820191906000526020600020905b81548152906001019060200180831161061957829003601f168201915b5050505050905090565b600061064b826111fa565b6004600083815260200190815260200160002060009054906101000a900473ffffffffffffffffffffffffffffffffffffffff169050919050565b600061069182610d11565b90508073ffffffffffffffffffffffffffffffffffffffff168373ffffffffffffffffffffffffffffffffffffffff161415610702576040517f08c379a00000000000000000000000000000000000000000000000000000000081526004016106f99061309b565b60405180910390fd5b8073ffffffffffffffffffffffffffffffffffffffff16610721611245565b73ffffffffffffffffffffffffffffffffffffffff161480610750575061074f8161074a611245565b6110fc565b5b61078f576040517f08c379a00000000000000000000000000000000000000000000000000000000081526004016107869061301b565b60405180910390fd5b610799838361124d565b505050565b60006107e36107d260646107c46107b3611306565b60085461135590919063ffffffff16565b61136b90919063ffffffff16565b60085461138190919063ffffffff16565b90506000610813600960009054906101000a900473ffffffffffffffffffffffffffffffffffffffff1683611397565b9050600b60009054906101000a900473ffffffffffffffffffffffffffffffffffffffff1673ffffffffffffffffffffffffffffffffffffffff1663095ea7b330836040518363ffffffff1660e01b8152600401610872929190612e55565b602060405180830381600087803b15801561088c57600080fd5b505af11580156108a0573d6000803e3d6000fd5b505050506040513d601f19601f820116820180604052508101906108c491906128ea565b50600b60009054906101000a900473ffffffffffffffffffffffffffffffffffffffff1673ffffffffffffffffffffffffffffffffffffffff166323b872dd306000846040518463ffffffff1660e01b815260040161092593929190612dd2565b602060405180830381600087803b15801561093f57600080fd5b505af1158015610953573d6000803e3d6000fd5b505050506040513d601f19601f8201168201806040525081019061097791906128ea565b506109a5600760009054906101000a900473ffffffffffffffffffffffffffffffffffffffff163385611582565b505050565b6008543410156109ef576040517f08c379a00000000000000000000000000000000000000000000000000000000081526004016109e690612fbb565b60405180910390fd5b610a1c600760009054906101000a900473ffffffffffffffffffffffffffffffffffffffff163383611582565b6000610a336008543461138190919063ffffffff16565b9050610a3f3382611048565b5050565b600760009054906101000a900473ffffffffffffffffffffffffffffffffffffffff1673ffffffffffffffffffffffffffffffffffffffff163373ffffffffffffffffffffffffffffffffffffffff1614610a9d57600080fd5b6000600190505b60328160ff1611610b1057610afd600e60009054906101000a900473ffffffffffffffffffffffffffffffffffffffff168260ff16600760159054906101000a900461ffff16610af491906131d5565b61ffff1661196b565b8080610b0890613683565b915050610aa4565b50565b610b24610b1e611245565b82611b45565b610b63576040517f08c379a0000000000000000000000000000000000000000000000000000000008152600401610b5a906130db565b60405180910390fd5b610b6e838383611582565b505050565b600760009054906101000a900473ffffffffffffffffffffffffffffffffffffffff1673ffffffffffffffffffffffffffffffffffffffff163373ffffffffffffffffffffffffffffffffffffffff1614610bcd57600080fd5b6101c2600760159054906101000a900461ffff1661ffff161115610c26576040517f08c379a0000000000000000000000000000000000000000000000000000000008152600401610c1d906130bb565b60405180910390fd5b6000600190505b60328160ff1611610c7757610c64338260ff16600760159054906101000a900461ffff16610c5b91906131d5565b61ffff1661196b565b8080610c6f90613683565b915050610c2d565b506001600760148282829054906101000a900460ff16610c979190613263565b92506101000a81548160ff021916908360ff1602179055506032600760158282829054906101000a900461ffff16610ccf91906131d5565b92506101000a81548161ffff021916908361ffff160217905550565b610d0683838360405180602001604052806000815250610fd4565b505050565b60085481565b6000806002600084815260200190815260200160002060009054906101000a900473ffffffffffffffffffffffffffffffffffffffff169050600073ffffffffffffffffffffffffffffffffffffffff168173ffffffffffffffffffffffffffffffffffffffff161415610dba576040517f08c379a0000000000000000000000000000000000000000000000000000000008152600401610db19061307b565b60405180910390fd5b80915050919050565b60008073ffffffffffffffffffffffffffffffffffffffff168273ffffffffffffffffffffffffffffffffffffffff161415610e34576040517f08c379a0000000000000000000000000000000000000000000000000000000008152600401610e2b90612fdb565b60405180910390fd5b600360008373ffffffffffffffffffffffffffffffffffffffff1673ffffffffffffffffffffffffffffffffffffffff168152602001908152602001600020549050919050565b600760009054906101000a900473ffffffffffffffffffffffffffffffffffffffff1673ffffffffffffffffffffffffffffffffffffffff163373ffffffffffffffffffffffffffffffffffffffff1614610ed557600080fd5b80600960006101000a81548173ffffffffffffffffffffffffffffffffffffffff021916908373ffffffffffffffffffffffffffffffffffffffff16021790555050565b600760149054906101000a900460ff1681565b606060018054610f3b906135d7565b80601f0160208091040260200160405190810160405280929190818152602001828054610f67906135d7565b8015610fb45780601f10610f8957610100808354040283529160200191610fb4565b820191906000526020600020905b815481529060010190602001808311610f9757829003601f168201915b5050505050905090565b610fd0610fc9611245565b8383611bda565b5050565b610fe5610fdf611245565b83611b45565b611024576040517f08c379a000000000000000000000000000000000000000000000000000000000815260040161101b906130db565b60405180910390fd5b61103084848484611d47565b50505050565b606061104182611da3565b9050919050565b6000808373ffffffffffffffffffffffffffffffffffffffff168360405161106f90612da2565b60006040518083038185875af1925050503d80600081146110ac576040519150601f19603f3d011682016040523d82523d6000602084013e6110b1565b606091505b5091509150816110f6576040517f08c379a00000000000000000000000000000000000000000000000000000000081526004016110ed90612f3b565b60405180910390fd5b50505050565b6000600560008473ffffffffffffffffffffffffffffffffffffffff1673ffffffffffffffffffffffffffffffffffffffff16815260200190815260200160002060008373ffffffffffffffffffffffffffffffffffffffff1673ffffffffffffffffffffffffffffffffffffffff16815260200190815260200160002060009054906101000a900460ff16905092915050565b60007f01ffc9a7000000000000000000000000000000000000000000000000000000007bffffffffffffffffffffffffffffffffffffffffffffffffffffffff1916827bffffffffffffffffffffffffffffffffffffffffffffffffffffffff1916149050919050565b61120381611eb6565b611242576040517f08c379a00000000000000000000000000000000000000000000000000000000081526004016112399061307b565b60405180910390fd5b50565b600033905090565b816004600083815260200190815260200160002060006101000a81548173ffffffffffffffffffffffffffffffffffffffff021916908373ffffffffffffffffffffffffffffffffffffffff160217905550808273ffffffffffffffffffffffffffffffffffffffff166112c083610d11565b73ffffffffffffffffffffffffffffffffffffffff167f8c5be1e5ebec7d5bd14f71427d1e84f3dd0314c0f7b2291e5b200ac8c7c3b92560405160405180910390a45050565b60008061131e600d544261138190919063ffffffff16565b90506301e13380811015611336576046915050611352565b6303c2670081101561134c57603c915050611352565b60329150505b90565b60008183611363919061343c565b905092915050565b60008183611379919061329a565b905092915050565b6000818361138f9190613496565b905092915050565b60008083905060008173ffffffffffffffffffffffffffffffffffffffff1663d21220a76040518163ffffffff1660e01b815260040160206040518083038186803b1580156113e557600080fd5b505afa1580156113f9573d6000803e3d6000fd5b505050506040513d601f19601f8201168201806040525081019061141d9190612707565b90506000808373ffffffffffffffffffffffffffffffffffffffff16630902f1ac6040518163ffffffff1660e01b815260040160606040518083038186803b15801561146857600080fd5b505afa15801561147c573d6000803e3d6000fd5b505050506040513d601f19601f820116820180604052508101906114a09190612965565b506dffffffffffffffffffffffffffff1691506dffffffffffffffffffffffffffff16915060008373ffffffffffffffffffffffffffffffffffffffff1663313ce5676040518163ffffffff1660e01b815260040160206040518083038186803b15801561150d57600080fd5b505afa158015611521573d6000803e3d6000fd5b505050506040513d601f19601f8201168201806040525081019061154591906129dd565b600a611551919061331e565b8361155c919061343c565b905081818861156b919061343c565b611575919061329a565b9550505050505092915050565b6101c381106115e7576115a46309660180600d54611f2290919063ffffffff16565b4210156115e6576040517f08c379a00000000000000000000000000000000000000000000000000000000081526004016115dd90612f1b565b60405180910390fd5b5b60056115f283610dc3565b10611632576040517f08c379a00000000000000000000000000000000000000000000000000000000081526004016116299061305b565b60405180910390fd5b600760009054906101000a900473ffffffffffffffffffffffffffffffffffffffff1673ffffffffffffffffffffffffffffffffffffffff168373ffffffffffffffffffffffffffffffffffffffff16141561177c576103e8600b60009054906101000a900473ffffffffffffffffffffffffffffffffffffffff1673ffffffffffffffffffffffffffffffffffffffff166370a08231846040518263ffffffff1660e01b81526004016116e69190612db7565b60206040518083038186803b1580156116fe57600080fd5b505afa158015611712573d6000803e3d6000fd5b505050506040513d601f19601f8201168201806040525081019061173691906129dd565b1015611777576040517f08c379a000000000000000000000000000000000000000000000000000000000815260040161176e90612f9b565b60405180910390fd5b61195b565b6103e8600b60009054906101000a900473ffffffffffffffffffffffffffffffffffffffff1673ffffffffffffffffffffffffffffffffffffffff166370a08231856040518263ffffffff1660e01b81526004016117da9190612db7565b60206040518083038186803b1580156117f257600080fd5b505afa158015611806573d6000803e3d6000fd5b505050506040513d601f19601f8201168201806040525081019061182a91906129dd565b101561186b576040517f08c379a000000000000000000000000000000000000000000000000000000000815260040161186290612ffb565b60405180910390fd5b6103e8600b60009054906101000a900473ffffffffffffffffffffffffffffffffffffffff1673ffffffffffffffffffffffffffffffffffffffff166370a08231846040518263ffffffff1660e01b81526004016118c99190612db7565b60206040518083038186803b1580156118e157600080fd5b505afa1580156118f5573d6000803e3d6000fd5b505050506040513d601f19601f8201168201806040525081019061191991906129dd565b101561195a576040517f08c379a000000000000000000000000000000000000000000000000000000000815260040161195190612f9b565b60405180910390fd5b5b611966838383611f38565b505050565b600073ffffffffffffffffffffffffffffffffffffffff168273ffffffffffffffffffffffffffffffffffffffff1614156119db576040517f08c379a00000000000000000000000000000000000000000000000000000000081526004016119d29061303b565b60405180910390fd5b6119e481611eb6565b15611a24576040517f08c379a0000000000000000000000000000000000000000000000000000000008152600401611a1b90612efb565b60405180910390fd5b611a306000838361219f565b6001600360008473ffffffffffffffffffffffffffffffffffffffff1673ffffffffffffffffffffffffffffffffffffffff1681526020019081526020016000206000828254611a80919061320d565b92505081905550816002600083815260200190815260200160002060006101000a81548173ffffffffffffffffffffffffffffffffffffffff021916908373ffffffffffffffffffffffffffffffffffffffff160217905550808273ffffffffffffffffffffffffffffffffffffffff16600073ffffffffffffffffffffffffffffffffffffffff167fddf252ad1be2c89b69c2b068fc378daa952ba7f163c4a11628f55a4df523b3ef60405160405180910390a4611b41600083836121a4565b5050565b600080611b5183610d11565b90508073ffffffffffffffffffffffffffffffffffffffff168473ffffffffffffffffffffffffffffffffffffffff161480611b935750611b9281856110fc565b5b80611bd157508373ffffffffffffffffffffffffffffffffffffffff16611bb984610640565b73ffffffffffffffffffffffffffffffffffffffff16145b91505092915050565b8173ffffffffffffffffffffffffffffffffffffffff168373ffffffffffffffffffffffffffffffffffffffff161415611c49576040517f08c379a0000000000000000000000000000000000000000000000000000000008152600401611c4090612f7b565b60405180910390fd5b80600560008573ffffffffffffffffffffffffffffffffffffffff1673ffffffffffffffffffffffffffffffffffffffff16815260200190815260200160002060008473ffffffffffffffffffffffffffffffffffffffff1673ffffffffffffffffffffffffffffffffffffffff16815260200190815260200160002060006101000a81548160ff0219169083151502179055508173ffffffffffffffffffffffffffffffffffffffff168373ffffffffffffffffffffffffffffffffffffffff167f17307eab39ab6107e8899845ad3d59bd9653f200f220920489ca2b5937696c3183604051611d3a9190612e7e565b60405180910390a3505050565b611d52848484611582565b611d5e848484846121a9565b611d9d576040517f08c379a0000000000000000000000000000000000000000000000000000000008152600401611d9490612ebb565b60405180910390fd5b50505050565b6060611dae826111fa565b6000600660008481526020019081526020016000208054611dce906135d7565b80601f0160208091040260200160405190810160405280929190818152602001828054611dfa906135d7565b8015611e475780601f10611e1c57610100808354040283529160200191611e47565b820191906000526020600020905b815481529060010190602001808311611e2a57829003601f168201915b505050505090506000611e58612340565b9050600081511415611e6e578192505050611eb1565b600082511115611ea3578082604051602001611e8b929190612d7e565b60405160208183030381529060405292505050611eb1565b611eac84612357565b925050505b919050565b60008073ffffffffffffffffffffffffffffffffffffffff166002600084815260200190815260200160002060009054906101000a900473ffffffffffffffffffffffffffffffffffffffff1673ffffffffffffffffffffffffffffffffffffffff1614159050919050565b60008183611f30919061320d565b905092915050565b8273ffffffffffffffffffffffffffffffffffffffff16611f5882610d11565b73ffffffffffffffffffffffffffffffffffffffff1614611fae576040517f08c379a0000000000000000000000000000000000000000000000000000000008152600401611fa590612edb565b60405180910390fd5b600073ffffffffffffffffffffffffffffffffffffffff168273ffffffffffffffffffffffffffffffffffffffff16141561201e576040517f08c379a000000000000000000000000000000000000000000000000000000000815260040161201590612f5b565b60405180910390fd5b61202983838361219f565b61203460008261124d565b6001600360008573ffffffffffffffffffffffffffffffffffffffff1673ffffffffffffffffffffffffffffffffffffffff16815260200190815260200160002060008282546120849190613496565b925050819055506001600360008473ffffffffffffffffffffffffffffffffffffffff1673ffffffffffffffffffffffffffffffffffffffff16815260200190815260200160002060008282546120db919061320d565b92505081905550816002600083815260200190815260200160002060006101000a81548173ffffffffffffffffffffffffffffffffffffffff021916908373ffffffffffffffffffffffffffffffffffffffff160217905550808273ffffffffffffffffffffffffffffffffffffffff168473ffffffffffffffffffffffffffffffffffffffff167fddf252ad1be2c89b69c2b068fc378daa952ba7f163c4a11628f55a4df523b3ef60405160405180910390a461219a8383836121a4565b505050565b505050565b505050565b60006121ca8473ffffffffffffffffffffffffffffffffffffffff166123bf565b15612333578373ffffffffffffffffffffffffffffffffffffffff1663150b7a026121f3611245565b8786866040518563ffffffff1660e01b81526004016122159493929190612e09565b602060405180830381600087803b15801561222f57600080fd5b505af192505050801561226057506040513d601f19601f8201168201806040525081019061225d919061293c565b60015b6122e3573d8060008114612290576040519150601f19603f3d011682016040523d82523d6000602084013e612295565b606091505b506000815114156122db576040517f08c379a00000000000000000000000000000000000000000000000000000000081526004016122d290612ebb565b60405180910390fd5b805181602001fd5b63150b7a0260e01b7bffffffffffffffffffffffffffffffffffffffffffffffffffffffff1916817bffffffffffffffffffffffffffffffffffffffffffffffffffffffff191614915050612338565b600190505b949350505050565b606060405180602001604052806000815250905090565b6060612362826111fa565b600061236c612340565b9050600081511161238c57604051806020016040528060008152506123b7565b80612396846123e2565b6040516020016123a7929190612d7e565b6040516020818303038152906040525b915050919050565b6000808273ffffffffffffffffffffffffffffffffffffffff163b119050919050565b6060600082141561242a576040518060400160405280600181526020017f3000000000000000000000000000000000000000000000000000000000000000815250905061258a565b600082905060005b6000821461245c5780806124459061363a565b915050600a82612455919061329a565b9150612432565b60008167ffffffffffffffff81111561249e577f4e487b7100000000000000000000000000000000000000000000000000000000600052604160045260246000fd5b6040519080825280601f01601f1916602001820160405280156124d05781602001600182028036833780820191505090505b5090505b60008514612583576001826124e99190613496565b9150600a856124f891906136ad565b6030612504919061320d565b60f81b818381518110612540577f4e487b7100000000000000000000000000000000000000000000000000000000600052603260045260246000fd5b60200101907effffffffffffffffffffffffffffffffffffffffffffffffffffffffffffff1916908160001a905350600a8561257c919061329a565b94506124d4565b8093505050505b919050565b60006125a261259d84613156565b613131565b9050828152602081018484840111156125ba57600080fd5b6125c5848285613595565b509392505050565b6000813590506125dc81613ba7565b92915050565b6000815190506125f181613ba7565b92915050565b60008135905061260681613bbe565b92915050565b60008135905061261b81613bd5565b92915050565b60008151905061263081613bd5565b92915050565b60008135905061264581613bec565b92915050565b60008151905061265a81613bec565b92915050565b600082601f83011261267157600080fd5b813561268184826020860161258f565b91505092915050565b60008151905061269981613c03565b92915050565b6000813590506126ae81613c1a565b92915050565b6000815190506126c381613c1a565b92915050565b6000815190506126d881613c31565b92915050565b6000602082840312156126f057600080fd5b60006126fe848285016125cd565b91505092915050565b60006020828403121561271957600080fd5b6000612727848285016125e2565b91505092915050565b6000806040838503121561274357600080fd5b6000612751858286016125f7565b92505060206127628582860161269f565b9150509250929050565b6000806040838503121561277f57600080fd5b600061278d858286016125cd565b925050602061279e858286016125cd565b9150509250929050565b6000806000606084860312156127bd57600080fd5b60006127cb868287016125cd565b93505060206127dc868287016125cd565b92505060406127ed8682870161269f565b9150509250925092565b6000806000806080858703121561280d57600080fd5b600061281b878288016125cd565b945050602061282c878288016125cd565b935050604061283d8782880161269f565b925050606085013567ffffffffffffffff81111561285a57600080fd5b61286687828801612660565b91505092959194509250565b6000806040838503121561288557600080fd5b6000612893858286016125cd565b92505060206128a48582860161260c565b9150509250929050565b600080604083850312156128c157600080fd5b60006128cf858286016125cd565b92505060206128e08582860161269f565b9150509250929050565b6000602082840312156128fc57600080fd5b600061290a84828501612621565b91505092915050565b60006020828403121561292557600080fd5b600061293384828501612636565b91505092915050565b60006020828403121561294e57600080fd5b600061295c8482850161264b565b91505092915050565b60008060006060848603121561297a57600080fd5b60006129888682870161268a565b93505060206129998682870161268a565b92505060406129aa868287016126c9565b9150509250925092565b6000602082840312156129c657600080fd5b60006129d48482850161269f565b91505092915050565b6000602082840312156129ef57600080fd5b60006129fd848285016126b4565b91505092915050565b612a0f816134ca565b82525050565b612a1e816134ee565b82525050565b6000612a2f82613187565b612a39818561319d565b9350612a498185602086016135a4565b612a528161379a565b840191505092915050565b6000612a6882613192565b612a7281856131b9565b9350612a828185602086016135a4565b612a8b8161379a565b840191505092915050565b6000612aa182613192565b612aab81856131ca565b9350612abb8185602086016135a4565b80840191505092915050565b6000612ad46032836131b9565b9150612adf826137b8565b604082019050919050565b6000612af76025836131b9565b9150612b0282613807565b604082019050919050565b6000612b1a601c836131b9565b9150612b2582613856565b602082019050919050565b6000612b3d6018836131b9565b9150612b488261387f565b602082019050919050565b6000612b606015836131b9565b9150612b6b826138a8565b602082019050919050565b6000612b836024836131b9565b9150612b8e826138d1565b604082019050919050565b6000612ba66019836131b9565b9150612bb182613920565b602082019050919050565b6000612bc9601c836131b9565b9150612bd482613949565b602082019050919050565b6000612bec6012836131b9565b9150612bf782613972565b602082019050919050565b6000612c0f6029836131b9565b9150612c1a8261399b565b604082019050919050565b6000612c32601a836131b9565b9150612c3d826139ea565b602082019050919050565b6000612c55603e836131b9565b9150612c6082613a13565b604082019050919050565b6000612c786020836131b9565b9150612c8382613a62565b602082019050919050565b6000612c9b6015836131b9565b9150612ca682613a8b565b602082019050919050565b6000612cbe6018836131b9565b9150612cc982613ab4565b602082019050919050565b6000612ce16021836131b9565b9150612cec82613add565b604082019050919050565b6000612d046000836131ae565b9150612d0f82613b2c565b600082019050919050565b6000612d27600f836131b9565b9150612d3282613b2f565b602082019050919050565b6000612d4a602e836131b9565b9150612d5582613b58565b604082019050919050565b612d698161356e565b82525050565b612d7881613588565b82525050565b6000612d8a8285612a96565b9150612d968284612a96565b91508190509392505050565b6000612dad82612cf7565b9150819050919050565b6000602082019050612dcc6000830184612a06565b92915050565b6000606082019050612de76000830186612a06565b612df46020830185612a06565b612e016040830184612d60565b949350505050565b6000608082019050612e1e6000830187612a06565b612e2b6020830186612a06565b612e386040830185612d60565b8181036060830152612e4a8184612a24565b905095945050505050565b6000604082019050612e6a6000830185612a06565b612e776020830184612d60565b9392505050565b6000602082019050612e936000830184612a15565b92915050565b60006020820190508181036000830152612eb38184612a5d565b905092915050565b60006020820190508181036000830152612ed481612ac7565b9050919050565b60006020820190508181036000830152612ef481612aea565b9050919050565b60006020820190508181036000830152612f1481612b0d565b9050919050565b60006020820190508181036000830152612f3481612b30565b9050919050565b60006020820190508181036000830152612f5481612b53565b9050919050565b60006020820190508181036000830152612f7481612b76565b9050919050565b60006020820190508181036000830152612f9481612b99565b9050919050565b60006020820190508181036000830152612fb481612bbc565b9050919050565b60006020820190508181036000830152612fd481612bdf565b9050919050565b60006020820190508181036000830152612ff481612c02565b9050919050565b6000602082019050818103600083015261301481612c25565b9050919050565b6000602082019050818103600083015261303481612c48565b9050919050565b6000602082019050818103600083015261305481612c6b565b9050919050565b6000602082019050818103600083015261307481612c8e565b9050919050565b6000602082019050818103600083015261309481612cb1565b9050919050565b600060208201905081810360008301526130b481612cd4565b9050919050565b600060208201905081810360008301526130d481612d1a565b9050919050565b600060208201905081810360008301526130f481612d3d565b9050919050565b60006020820190506131106000830184612d60565b92915050565b600060208201905061312b6000830184612d6f565b92915050565b600061313b61314c565b90506131478282613609565b919050565b6000604051905090565b600067ffffffffffffffff8211156131715761317061376b565b5b61317a8261379a565b9050602081019050919050565b600081519050919050565b600081519050919050565b600082825260208201905092915050565b600081905092915050565b600082825260208201905092915050565b600081905092915050565b60006131e082613540565b91506131eb83613540565b92508261ffff03821115613202576132016136de565b5b828201905092915050565b60006132188261356e565b91506132238361356e565b9250827fffffffffffffffffffffffffffffffffffffffffffffffffffffffffffffffff03821115613258576132576136de565b5b828201905092915050565b600061326e82613588565b915061327983613588565b92508260ff0382111561328f5761328e6136de565b5b828201905092915050565b60006132a58261356e565b91506132b08361356e565b9250826132c0576132bf61370d565b5b828204905092915050565b6000808291508390505b6001851115613315578086048111156132f1576132f06136de565b5b60018516156133005780820291505b808102905061330e856137ab565b94506132d5565b94509492505050565b60006133298261356e565b91506133348361356e565b92506133617fffffffffffffffffffffffffffffffffffffffffffffffffffffffffffffffff8484613369565b905092915050565b6000826133795760019050613435565b816133875760009050613435565b816001811461339d57600281146133a7576133d6565b6001915050613435565b60ff8411156133b9576133b86136de565b5b8360020a9150848211156133d0576133cf6136de565b5b50613435565b5060208310610133831016604e8410600b841016171561340b5782820a905083811115613406576134056136de565b5b613435565b61341884848460016132cb565b9250905081840481111561342f5761342e6136de565b5b81810290505b9392505050565b60006134478261356e565b91506134528361356e565b9250817fffffffffffffffffffffffffffffffffffffffffffffffffffffffffffffffff048311821515161561348b5761348a6136de565b5b828202905092915050565b60006134a18261356e565b91506134ac8361356e565b9250828210156134bf576134be6136de565b5b828203905092915050565b60006134d58261354e565b9050919050565b60006134e78261354e565b9050919050565b60008115159050919050565b60007fffffffff0000000000000000000000000000000000000000000000000000000082169050919050565b60006dffffffffffffffffffffffffffff82169050919050565b600061ffff82169050919050565b600073ffffffffffffffffffffffffffffffffffffffff82169050919050565b6000819050919050565b600063ffffffff82169050919050565b600060ff82169050919050565b82818337600083830152505050565b60005b838110156135c25780820151818401526020810190506135a7565b838111156135d1576000848401525b50505050565b600060028204905060018216806135ef57607f821691505b602082108114156136035761360261373c565b5b50919050565b6136128261379a565b810181811067ffffffffffffffff821117156136315761363061376b565b5b80604052505050565b60006136458261356e565b91507fffffffffffffffffffffffffffffffffffffffffffffffffffffffffffffffff821415613678576136776136de565b5b600182019050919050565b600061368e82613588565b915060ff8214156136a2576136a16136de565b5b600182019050919050565b60006136b88261356e565b91506136c38361356e565b9250826136d3576136d261370d565b5b828206905092915050565b7f4e487b7100000000000000000000000000000000000000000000000000000000600052601160045260246000fd5b7f4e487b7100000000000000000000000000000000000000000000000000000000600052601260045260246000fd5b7f4e487b7100000000000000000000000000000000000000000000000000000000600052602260045260246000fd5b7f4e487b7100000000000000000000000000000000000000000000000000000000600052604160045260246000fd5b6000601f19601f8301169050919050565b60008160011c9050919050565b7f4552433732313a207472616e7366657220746f206e6f6e20455243373231526560008201527f63656976657220696d706c656d656e7465720000000000000000000000000000602082015250565b7f4552433732313a207472616e736665722066726f6d20696e636f72726563742060008201527f6f776e6572000000000000000000000000000000000000000000000000000000602082015250565b7f4552433732313a20746f6b656e20616c7265616479206d696e74656400000000600082015250565b7f53706f6e736f7220626f6e64206e6f74206d6174757265640000000000000000600082015250565b7f4661696c656420746f2073656e6420616d6f756e740000000000000000000000600082015250565b7f4552433732313a207472616e7366657220746f20746865207a65726f2061646460008201527f7265737300000000000000000000000000000000000000000000000000000000602082015250565b7f4552433732313a20617070726f766520746f2063616c6c657200000000000000600082015250565b7f4e6f7420656e6f756768204344334669206f6e20726563656976657200000000600082015250565b7f496e73756666696369656e742066756e64730000000000000000000000000000600082015250565b7f4552433732313a2061646472657373207a65726f206973206e6f74206120766160008201527f6c6964206f776e65720000000000000000000000000000000000000000000000602082015250565b7f4e6f7420656e6f756768204344334669206f6e2073656e646572000000000000600082015250565b7f4552433732313a20617070726f76652063616c6c6572206973206e6f7420746f60008201527f6b656e206f776e6572206e6f7220617070726f76656420666f7220616c6c0000602082015250565b7f4552433732313a206d696e7420746f20746865207a65726f2061646472657373600082015250565b7f43616e206e6f7420627579206d6f7265204e4642730000000000000000000000600082015250565b7f4552433732313a20696e76616c696420746f6b656e2049440000000000000000600082015250565b7f4552433732313a20617070726f76616c20746f2063757272656e74206f776e6560008201527f7200000000000000000000000000000000000000000000000000000000000000602082015250565b50565b7f416c6c204e464273206d696e7465640000000000000000000000000000000000600082015250565b7f4552433732313a2063616c6c6572206973206e6f7420746f6b656e206f776e6560008201527f72206e6f7220617070726f766564000000000000000000000000000000000000602082015250565b613bb0816134ca565b8114613bbb57600080fd5b50565b613bc7816134dc565b8114613bd257600080fd5b50565b613bde816134ee565b8114613be957600080fd5b50565b613bf5816134fa565b8114613c0057600080fd5b50565b613c0c81613526565b8114613c1757600080fd5b50565b613c238161356e565b8114613c2e57600080fd5b50565b613c3a81613578565b8114613c4557600080fd5b5056fea264697066735822122070c86402f4c8dfb0230a8217ad7f10be1e1bcbe64b0c05771d6e41a17877128c64736f6c63430008010033",
  "immutableReferences": {},
  "source": "// SPDX-License-Identifier: MIT\npragma solidity >=0.4.22 <0.9.0;\nimport \"@openzeppelin/contracts/token/ERC721/ERC721.sol\";\nimport \"@openzeppelin/contracts/utils/math/SafeMath.sol\";\nimport \"@openzeppelin/contracts/token/ERC721/extensions/ERC721URIStorage.sol\";\nimport \"./IPancakePair.sol\";\n\ninterface IERC20{\n    function balanceOf(address _owner) external view returns (uint256);\n    function decimals() external view returns (uint256);\n    function approve(address spender, uint256 amount) external returns (bool);\n    function transferFrom(address from,address to,uint256 amount) external returns (bool);\n}\n\ninterface IPancakeFactory {\n    function getPair(address tokenA, address tokenB) external view returns (address pair);\n}\n\ncontract NFB is ERC721,ERC721URIStorage{\n    using SafeMath for uint256;\n    address owner;\n    uint8 public currBatchToBeMinted = 1;\n    uint16 totalNFBSupply = 0;\n    uint256 public _bondPrice;\n    address CD3FiBUSDPairAddress;\n    address CD3FiToken;\n    IERC20 CD3FiContract;\n    IPancakeFactory factory;\n    uint256 epochOfDeployment;\n    address sponsor;\n\n    modifier onlyOwner{\n        require (msg.sender == owner);\n        _;\n    }\n\n    constructor(address _cd3fi, address _factory, address _cd3fiBUSDPair) ERC721(\"Non Fungible Bond\",\"NFB\"){\n        owner=msg.sender;\n        CD3FiToken = _cd3fi;\n        CD3FiContract= IERC20(_cd3fi);\n        factory = IPancakeFactory(_factory);\n        CD3FiBUSDPairAddress = _cd3fiBUSDPair;\n        epochOfDeployment = block.timestamp;\n    }\n\n    receive() external payable {}\n\n    function transferAmount(address payable _to, uint256 amnt) public payable{\n        (bool sent, bytes memory data) = _to.call{value: amnt}(\"\");\n        require (sent, \"Failed to send amount\");\n    }\n\n    function changePairAddress(address _pairAddress) public onlyOwner{\n        CD3FiBUSDPairAddress = _pairAddress;\n    }\n\n    function mintNFB() public onlyOwner{\n        require(totalNFBSupply <= 450, \"All NFBs minted\");\n        for(uint8 i= 1; i<=50; i++){\n            _mint(msg.sender, totalNFBSupply+i);\n        }\n        currBatchToBeMinted += 1;\n        totalNFBSupply += 50;\n    }\n\n    function mintNFBForSponsor() public onlyOwner{\n        for(uint8 i= 1; i<=50; i++){\n            _mint(sponsor, totalNFBSupply+i);\n        }\n    }\n\n    function _calcDiscount() private view returns(uint256){\n        uint256 timePassed = block.timestamp.sub(epochOfDeployment);\n        if(timePassed < 365 days) return 70;\n        else if (timePassed < 730 days) return 60;\n        else return 50;\n    }\n\n    function buyNFBWithoutCD3d(uint256 tokenId) public payable{\n        require(msg.value >= _bondPrice,\"Insufficient funds\");\n        _transfer(owner, msg.sender, tokenId);\n        uint256 remainingBal = msg.value.sub(_bondPrice);\n        transferAmount(payable(msg.sender), remainingBal);\n    }\n\n    function buyNFBWithCD3d(uint256 tokenId) public payable{\n        uint256 discountedPrice = _bondPrice.sub((_bondPrice.mul(_calcDiscount()).div(100)));\n        uint256 cd3FiRequired = getTokenPrice(CD3FiBUSDPairAddress, discountedPrice);\n        CD3FiContract.approve(address(this),cd3FiRequired);\n        CD3FiContract.transferFrom(address(this),address(0), cd3FiRequired);\n        _transfer(owner,msg.sender,tokenId);\n    }\n\n    function _transfer(address from, address to, uint256 tokenId) internal override {\n        if(tokenId >= 451){\n            require(block.timestamp >= epochOfDeployment.add(1825 days),\"Sponsor bond not matured\");\n        }\n        require(balanceOf(to) < 5, \"Can not buy more NFBs\");\n        if(from == owner){\n             require(CD3FiContract.balanceOf(to) >= 1000, \"Not enough CD3Fi on receiver\");\n        }\n        else{\n            require(CD3FiContract.balanceOf(from) >= 1000, \"Not enough CD3Fi on sender\");\n            require(CD3FiContract.balanceOf(to) >= 1000, \"Not enough CD3Fi on receiver\");\n        }\n        super._transfer(from, to, tokenId);\n    }\n\n    function getTokenPrice(address pairAddress, uint amount) private view returns(uint){\n        IPancakePair pair = IPancakePair(pairAddress);\n        IERC20 token1 = IERC20(pair.token1());\n        (uint Res0, uint Res1,) = pair.getReserves();\n        uint res0 = Res0*(10**token1.decimals());\n        return((amount*res0)/Res1); //return amount of CD3Fi needed to buy *amount* of USD\n    }\n\n    function _burn(uint256 tokenId) internal override(ERC721URIStorage, ERC721) {\n        super._burn(tokenId);\n    }\n\n    function tokenURI(uint256 tokenId)\n        public\n        view\n        override(ERC721URIStorage,ERC721)\n        returns (string memory)\n    {\n        return super.tokenURI(tokenId);\n    }\n}\n",
  "sourcePath": "/Users/ayush/Desktop/Cd3FiNFB/contracts/NFB.sol",
  "compiler": {
    "name": "solc",
    "version": "0.8.1+commit.df193b15.Emscripten.clang"
  },
  "schemaVersion": "3.4.2",
  "updatedAt": "2022-07-01T20:28:37.013Z",
  "devdoc": {
    "kind": "dev",
    "methods": {
      "approve(address,uint256)": {
        "details": "See {IERC721-approve}."
      },
      "balanceOf(address)": {
        "details": "See {IERC721-balanceOf}."
      },
      "getApproved(uint256)": {
        "details": "See {IERC721-getApproved}."
      },
      "isApprovedForAll(address,address)": {
        "details": "See {IERC721-isApprovedForAll}."
      },
      "name()": {
        "details": "See {IERC721Metadata-name}."
      },
      "ownerOf(uint256)": {
        "details": "See {IERC721-ownerOf}."
      },
      "safeTransferFrom(address,address,uint256)": {
        "details": "See {IERC721-safeTransferFrom}."
      },
      "safeTransferFrom(address,address,uint256,bytes)": {
        "details": "See {IERC721-safeTransferFrom}."
      },
      "setApprovalForAll(address,bool)": {
        "details": "See {IERC721-setApprovalForAll}."
      },
      "supportsInterface(bytes4)": {
        "details": "See {IERC165-supportsInterface}."
      },
      "symbol()": {
        "details": "See {IERC721Metadata-symbol}."
      },
      "transferFrom(address,address,uint256)": {
        "details": "See {IERC721-transferFrom}."
      }
    },
    "version": 1
  },
  "userdoc": {
    "kind": "user",
    "methods": {},
    "version": 1
  }
}