{
  "contractName": "NFB",
  "abi": [
    {
      "inputs": [
        {
          "internalType": "address",
          "name": "_cd3fi",
          "type": "address"
        },
        {
          "internalType": "address",
          "name": "_factory",
          "type": "address"
        },
        {
          "internalType": "address",
          "name": "_cd3fiBUSDPair",
          "type": "address"
        }
      ],
      "stateMutability": "nonpayable",
      "type": "constructor"
    },
    {
      "anonymous": false,
      "inputs": [
        {
          "indexed": true,
          "internalType": "address",
          "name": "owner",
          "type": "address"
        },
        {
          "indexed": true,
          "internalType": "address",
          "name": "approved",
          "type": "address"
        },
        {
          "indexed": true,
          "internalType": "uint256",
          "name": "tokenId",
          "type": "uint256"
        }
      ],
      "name": "Approval",
      "type": "event"
    },
    {
      "anonymous": false,
      "inputs": [
        {
          "indexed": true,
          "internalType": "address",
          "name": "owner",
          "type": "address"
        },
        {
          "indexed": true,
          "internalType": "address",
          "name": "operator",
          "type": "address"
        },
        {
          "indexed": false,
          "internalType": "bool",
          "name": "approved",
          "type": "bool"
        }
      ],
      "name": "ApprovalForAll",
      "type": "event"
    },
    {
      "anonymous": false,
      "inputs": [
        {
          "indexed": true,
          "internalType": "address",
          "name": "from",
          "type": "address"
        },
        {
          "indexed": true,
          "internalType": "address",
          "name": "to",
          "type": "address"
        },
        {
          "indexed": true,
          "internalType": "uint256",
          "name": "tokenId",
          "type": "uint256"
        }
      ],
      "name": "Transfer",
      "type": "event"
    },
    {
      "inputs": [],
      "name": "_bondPrice",
      "outputs": [
        {
          "internalType": "uint256",
          "name": "",
          "type": "uint256"
        }
      ],
      "stateMutability": "view",
      "type": "function"
    },
    {
      "inputs": [
        {
          "internalType": "address",
          "name": "to",
          "type": "address"
        },
        {
          "internalType": "uint256",
          "name": "tokenId",
          "type": "uint256"
        }
      ],
      "name": "approve",
      "outputs": [],
      "stateMutability": "nonpayable",
      "type": "function"
    },
    {
      "inputs": [
        {
          "internalType": "address",
          "name": "owner",
          "type": "address"
        }
      ],
      "name": "balanceOf",
      "outputs": [
        {
          "internalType": "uint256",
          "name": "",
          "type": "uint256"
        }
      ],
      "stateMutability": "view",
      "type": "function"
    },
    {
      "inputs": [],
      "name": "currBatchToBeMinted",
      "outputs": [
        {
          "internalType": "uint8",
          "name": "",
          "type": "uint8"
        }
      ],
      "stateMutability": "view",
      "type": "function"
    },
    {
      "inputs": [
        {
          "internalType": "uint256",
          "name": "tokenId",
          "type": "uint256"
        }
      ],
      "name": "getApproved",
      "outputs": [
        {
          "internalType": "address",
          "name": "",
          "type": "address"
        }
      ],
      "stateMutability": "view",
      "type": "function"
    },
    {
      "inputs": [
        {
          "internalType": "address",
          "name": "owner",
          "type": "address"
        },
        {
          "internalType": "address",
          "name": "operator",
          "type": "address"
        }
      ],
      "name": "isApprovedForAll",
      "outputs": [
        {
          "internalType": "bool",
          "name": "",
          "type": "bool"
        }
      ],
      "stateMutability": "view",
      "type": "function"
    },
    {
      "inputs": [],
      "name": "name",
      "outputs": [
        {
          "internalType": "string",
          "name": "",
          "type": "string"
        }
      ],
      "stateMutability": "view",
      "type": "function"
    },
    {
      "inputs": [
        {
          "internalType": "uint256",
          "name": "tokenId",
          "type": "uint256"
        }
      ],
      "name": "ownerOf",
      "outputs": [
        {
          "internalType": "address",
          "name": "",
          "type": "address"
        }
      ],
      "stateMutability": "view",
      "type": "function"
    },
    {
      "inputs": [
        {
          "internalType": "address",
          "name": "from",
          "type": "address"
        },
        {
          "internalType": "address",
          "name": "to",
          "type": "address"
        },
        {
          "internalType": "uint256",
          "name": "tokenId",
          "type": "uint256"
        }
      ],
      "name": "safeTransferFrom",
      "outputs": [],
      "stateMutability": "nonpayable",
      "type": "function"
    },
    {
      "inputs": [
        {
          "internalType": "address",
          "name": "from",
          "type": "address"
        },
        {
          "internalType": "address",
          "name": "to",
          "type": "address"
        },
        {
          "internalType": "uint256",
          "name": "tokenId",
          "type": "uint256"
        },
        {
          "internalType": "bytes",
          "name": "data",
          "type": "bytes"
        }
      ],
      "name": "safeTransferFrom",
      "outputs": [],
      "stateMutability": "nonpayable",
      "type": "function"
    },
    {
      "inputs": [
        {
          "internalType": "address",
          "name": "operator",
          "type": "address"
        },
        {
          "internalType": "bool",
          "name": "approved",
          "type": "bool"
        }
      ],
      "name": "setApprovalForAll",
      "outputs": [],
      "stateMutability": "nonpayable",
      "type": "function"
    },
    {
      "inputs": [
        {
          "internalType": "bytes4",
          "name": "interfaceId",
          "type": "bytes4"
        }
      ],
      "name": "supportsInterface",
      "outputs": [
        {
          "internalType": "bool",
          "name": "",
          "type": "bool"
        }
      ],
      "stateMutability": "view",
      "type": "function"
    },
    {
      "inputs": [],
      "name": "symbol",
      "outputs": [
        {
          "internalType": "string",
          "name": "",
          "type": "string"
        }
      ],
      "stateMutability": "view",
      "type": "function"
    },
    {
      "inputs": [
        {
          "internalType": "address",
          "name": "from",
          "type": "address"
        },
        {
          "internalType": "address",
          "name": "to",
          "type": "address"
        },
        {
          "internalType": "uint256",
          "name": "tokenId",
          "type": "uint256"
        }
      ],
      "name": "transferFrom",
      "outputs": [],
      "stateMutability": "nonpayable",
      "type": "function"
    },
    {
      "stateMutability": "payable",
      "type": "receive"
    },
    {
      "inputs": [
        {
          "internalType": "address payable",
          "name": "_to",
          "type": "address"
        },
        {
          "internalType": "uint256",
          "name": "amnt",
          "type": "uint256"
        }
      ],
      "name": "transferBNB",
      "outputs": [],
      "stateMutability": "payable",
      "type": "function"
    },
    {
      "inputs": [
        {
          "internalType": "address",
          "name": "_pairAddress",
          "type": "address"
        }
      ],
      "name": "changePairAddress",
      "outputs": [],
      "stateMutability": "nonpayable",
      "type": "function"
    },
    {
      "inputs": [],
      "name": "mintNFB",
      "outputs": [],
      "stateMutability": "nonpayable",
      "type": "function"
    },
    {
      "inputs": [
        {
          "internalType": "address",
          "name": "from",
          "type": "address"
        },
        {
          "internalType": "address",
          "name": "to",
          "type": "address"
        },
        {
          "internalType": "uint256",
          "name": "tokenId",
          "type": "uint256"
        }
      ],
      "name": "handlePrimarySale",
      "outputs": [],
      "stateMutability": "payable",
      "type": "function"
    },
    {
      "inputs": [
        {
          "internalType": "address",
          "name": "from",
          "type": "address"
        },
        {
          "internalType": "address",
          "name": "to",
          "type": "address"
        },
        {
          "internalType": "uint256",
          "name": "tokenId",
          "type": "uint256"
        }
      ],
      "name": "handleSecondarySale",
      "outputs": [],
      "stateMutability": "payable",
      "type": "function"
    },
    {
      "inputs": [
        {
          "internalType": "uint256",
          "name": "tokenId",
          "type": "uint256"
        }
      ],
      "name": "tokenURI",
      "outputs": [
        {
          "internalType": "string",
          "name": "",
          "type": "string"
        }
      ],
      "stateMutability": "view",
      "type": "function"
    }
  ],
  "bytecode": "0x60806040526001600760146101000a81548160ff021916908360ff1602179055506001600760156101000a81548161ffff021916908361ffff160217905550739ac64cc6e4415144c455bd8e4837fea55603e5c3600d60006101000a81548173ffffffffffffffffffffffffffffffffffffffff021916908373ffffffffffffffffffffffffffffffffffffffff1602179055507378867bbeef44f2326bf8ddd1941a4439382ef2a7601360006101000a81548173ffffffffffffffffffffffffffffffffffffffff021916908373ffffffffffffffffffffffffffffffffffffffff160217905550348015620000f557600080fd5b50604051620053053803806200530583398181016040528101906200011b919062000676565b6040518060400160405280601181526020017f4e6f6e2046756e6769626c6520426f6e640000000000000000000000000000008152506040518060400160405280600381526020017f4e4642000000000000000000000000000000000000000000000000000000000081525081600090805190602001906200019f929190620005af565b508060019080519060200190620001b8929190620005af565b50505033600760006101000a81548173ffffffffffffffffffffffffffffffffffffffff021916908373ffffffffffffffffffffffffffffffffffffffff16021790555082600a60006101000a81548173ffffffffffffffffffffffffffffffffffffffff021916908373ffffffffffffffffffffffffffffffffffffffff16021790555082600b60006101000a81548173ffffffffffffffffffffffffffffffffffffffff021916908373ffffffffffffffffffffffffffffffffffffffff16021790555081600c60006101000a81548173ffffffffffffffffffffffffffffffffffffffff021916908373ffffffffffffffffffffffffffffffffffffffff16021790555080600960006101000a81548173ffffffffffffffffffffffffffffffffffffffff021916908373ffffffffffffffffffffffffffffffffffffffff16021790555042600e81905550620186a0601260006001815260200190815260200160002081905550620003363360016200033f60201b60201c565b5050506200090a565b600073ffffffffffffffffffffffffffffffffffffffff168273ffffffffffffffffffffffffffffffffffffffff161415620003b2576040517f08c379a0000000000000000000000000000000000000000000000000000000008152600401620003a9906200073c565b60405180910390fd5b620003c3816200053960201b60201c565b1562000406576040517f08c379a0000000000000000000000000000000000000000000000000000000008152600401620003fd906200071a565b60405180910390fd5b6200041a60008383620005a560201b60201c565b6001600360008473ffffffffffffffffffffffffffffffffffffffff1673ffffffffffffffffffffffffffffffffffffffff16815260200190815260200160002060008282546200046c91906200076f565b92505081905550816002600083815260200190815260200160002060006101000a81548173ffffffffffffffffffffffffffffffffffffffff021916908373ffffffffffffffffffffffffffffffffffffffff160217905550808273ffffffffffffffffffffffffffffffffffffffff16600073ffffffffffffffffffffffffffffffffffffffff167fddf252ad1be2c89b69c2b068fc378daa952ba7f163c4a11628f55a4df523b3ef60405160405180910390a46200053560008383620005aa60201b60201c565b5050565b60008073ffffffffffffffffffffffffffffffffffffffff166002600084815260200190815260200160002060009054906101000a900473ffffffffffffffffffffffffffffffffffffffff1673ffffffffffffffffffffffffffffffffffffffff1614159050919050565b505050565b505050565b828054620005bd906200080a565b90600052602060002090601f016020900481019282620005e157600085556200062d565b82601f10620005fc57805160ff19168380011785556200062d565b828001600101855582156200062d579182015b828111156200062c5782518255916020019190600101906200060f565b5b5090506200063c919062000640565b5090565b5b808211156200065b57600081600090555060010162000641565b5090565b6000815190506200067081620008f0565b92915050565b6000806000606084860312156200068c57600080fd5b60006200069c868287016200065f565b9350506020620006af868287016200065f565b9250506040620006c2868287016200065f565b9150509250925092565b6000620006db601c836200075e565b9150620006e8826200089e565b602082019050919050565b6000620007026020836200075e565b91506200070f82620008c7565b602082019050919050565b600060208201905081810360008301526200073581620006cc565b9050919050565b600060208201905081810360008301526200075781620006f3565b9050919050565b600082825260208201905092915050565b60006200077c8262000800565b9150620007898362000800565b9250827fffffffffffffffffffffffffffffffffffffffffffffffffffffffffffffffff03821115620007c157620007c062000840565b5b828201905092915050565b6000620007d982620007e0565b9050919050565b600073ffffffffffffffffffffffffffffffffffffffff82169050919050565b6000819050919050565b600060028204905060018216806200082357607f821691505b602082108114156200083a57620008396200086f565b5b50919050565b7f4e487b7100000000000000000000000000000000000000000000000000000000600052601160045260246000fd5b7f4e487b7100000000000000000000000000000000000000000000000000000000600052602260045260246000fd5b7f4552433732313a20746f6b656e20616c7265616479206d696e74656400000000600082015250565b7f4552433732313a206d696e7420746f20746865207a65726f2061646472657373600082015250565b620008fb81620007cc565b81146200090757600080fd5b50565b6149eb806200091a6000396000f3fe6080604052600436106101235760003560e01c806370a08231116100a0578063a22cb46511610064578063a22cb465146103c2578063b88d4fde146103eb578063c87b56dd14610414578063e985e9c514610451578063eb17fba31461048e5761012a565b806370a08231146102ea578063886b112a146103275780638873b15f146103435780638dffaee41461036c57806395d89b41146103975761012a565b80633247a7f2116100e75780633247a7f21461022657806342842e0e1461023d5780634408fd34146102665780634c3d6072146102825780636352211e146102ad5761012a565b806301ffc9a71461012f57806306fdde031461016c578063081812fc14610197578063095ea7b3146101d457806323b872dd146101fd5761012a565b3661012a57005b600080fd5b34801561013b57600080fd5b50610156600480360381019061015191906136cf565b6104aa565b6040516101639190613c94565b60405180910390f35b34801561017857600080fd5b5061018161058c565b60405161018e9190613caf565b60405180910390f35b3480156101a357600080fd5b506101be60048036038101906101b99190613721565b61061e565b6040516101cb9190613ba4565b60405180910390f35b3480156101e057600080fd5b506101fb60048036038101906101f69190613629565b610664565b005b34801561020957600080fd5b50610224600480360381019061021f9190613523565b61077c565b005b34801561023257600080fd5b5061023b6107dc565b005b34801561024957600080fd5b50610264600480360381019061025f9190613523565b610b37565b005b610280600480360381019061027b9190613523565b610b57565b005b34801561028e57600080fd5b5061029761142a565b6040516102a49190613ef1565b60405180910390f35b3480156102b957600080fd5b506102d460048036038101906102cf9190613721565b611430565b6040516102e19190613ba4565b60405180910390f35b3480156102f657600080fd5b50610311600480360381019061030c9190613482565b6114e2565b60405161031e9190613ef1565b60405180910390f35b610341600480360381019061033c9190613523565b61159a565b005b34801561034f57600080fd5b5061036a60048036038101906103659190613482565b611d90565b005b34801561037857600080fd5b50610381611e2e565b60405161038e9190613f66565b60405180910390f35b3480156103a357600080fd5b506103ac611e41565b6040516103b99190613caf565b60405180910390f35b3480156103ce57600080fd5b506103e960048036038101906103e491906135ed565b611ed3565b005b3480156103f757600080fd5b50610412600480360381019061040d9190613572565b611ee9565b005b34801561042057600080fd5b5061043b60048036038101906104369190613721565b611f4b565b6040516104489190613caf565b60405180910390f35b34801561045d57600080fd5b50610478600480360381019061047391906134e7565b611f5d565b6040516104859190613c94565b60405180910390f35b6104a860048036038101906104a391906134ab565b611ff1565b005b60007f80ac58cd000000000000000000000000000000000000000000000000000000007bffffffffffffffffffffffffffffffffffffffffffffffffffffffff1916827bffffffffffffffffffffffffffffffffffffffffffffffffffffffff1916148061057557507f5b5e139f000000000000000000000000000000000000000000000000000000007bffffffffffffffffffffffffffffffffffffffffffffffffffffffff1916827bffffffffffffffffffffffffffffffffffffffffffffffffffffffff1916145b806105855750610584826120a5565b5b9050919050565b60606000805461059b906143a8565b80601f01602080910402602001604051908101604052809291908181526020018280546105c7906143a8565b80156106145780601f106105e957610100808354040283529160200191610614565b820191906000526020600020905b8154815290600101906020018083116105f757829003601f168201915b5050505050905090565b60006106298261210f565b6004600083815260200190815260200160002060009054906101000a900473ffffffffffffffffffffffffffffffffffffffff169050919050565b600061066f82611430565b90508073ffffffffffffffffffffffffffffffffffffffff168373ffffffffffffffffffffffffffffffffffffffff1614156106e0576040517f08c379a00000000000000000000000000000000000000000000000000000000081526004016106d790613e91565b60405180910390fd5b8073ffffffffffffffffffffffffffffffffffffffff166106ff61215a565b73ffffffffffffffffffffffffffffffffffffffff16148061072e575061072d8161072861215a565b611f5d565b5b61076d576040517f08c379a000000000000000000000000000000000000000000000000000000000815260040161076490613e11565b60405180910390fd5b6107778383612162565b505050565b61078d61078761215a565b8261221b565b6107cc576040517f08c379a00000000000000000000000000000000000000000000000000000000081526004016107c390613ed1565b60405180910390fd5b6107d78383836122b0565b505050565b600760009054906101000a900473ffffffffffffffffffffffffffffffffffffffff1673ffffffffffffffffffffffffffffffffffffffff163373ffffffffffffffffffffffffffffffffffffffff161461083657600080fd5b6101f4600760159054906101000a900461ffff1661ffff16111561088f576040517f08c379a000000000000000000000000000000000000000000000000000000000815260040161088690613eb1565b60405180910390fd5b6000600160326001600760149054906101000a900460ff166108b19190614249565b6108bb91906141da565b6108c59190614118565b60ff16905060006001826108d99190614215565b6127106108e691906140c2565b90506101c2600760159054906101000a900461ffff1661ffff1611156109f7576000600190505b60328160ff16116109f157610966600f60009054906101000a900473ffffffffffffffffffffffffffffffffffffffff168260ff16600760159054906101000a900461ffff1661095d919061408a565b61ffff1661270b565b6109af6127106109a1601260006001866109809190614249565b60ff16815260200190815260200160002054856128e590919063ffffffff16565b6128fb90919063ffffffff16565b601260008360ff168152602001908152602001600020819055506109dd60018361291190919063ffffffff16565b5080806109e990614454565b91505061090d565b50610ac2565b6000600190505b60328160ff1611610ac057610a35338260ff16600760159054906101000a900461ffff16610a2c919061408a565b61ffff1661270b565b610a7e612710610a7060126000600186610a4f9190614249565b60ff16815260200190815260200160002054856128e590919063ffffffff16565b6128fb90919063ffffffff16565b601260008360ff16815260200190815260200160002081905550610aac60018361291190919063ffffffff16565b508080610ab890614454565b9150506109fe565b505b6001600760148282829054906101000a900460ff16610ae19190614118565b92506101000a81548160ff021916908360ff1602179055506032600760158282829054906101000a900461ffff16610b19919061408a565b92506101000a81548161ffff021916908361ffff1602179055505050565b610b5283838360405180602001604052806000815250611ee9565b505050565b6000610b936064610b85600f60126000878152602001908152602001600020546128e590919063ffffffff16565b6128fb90919063ffffffff16565b9050600b60009054906101000a900473ffffffffffffffffffffffffffffffffffffffff1673ffffffffffffffffffffffffffffffffffffffff166323b872dd8430846040518463ffffffff1660e01b8152600401610bf493929190613be8565b602060405180830381600087803b158015610c0e57600080fd5b505af1158015610c22573d6000803e3d6000fd5b505050506040513d601f19601f82011682018060405250810190610c4691906136a6565b50600b60009054906101000a900473ffffffffffffffffffffffffffffffffffffffff1673ffffffffffffffffffffffffffffffffffffffff166323b872dd8486610cad85601260008981526020019081526020016000205461292790919063ffffffff16565b6040518463ffffffff1660e01b8152600401610ccb93929190613be8565b602060405180830381600087803b158015610ce557600080fd5b505af1158015610cf9573d6000803e3d6000fd5b505050506040513d601f19601f82011682018060405250810190610d1d91906136a6565b50600b60009054906101000a900473ffffffffffffffffffffffffffffffffffffffff1673ffffffffffffffffffffffffffffffffffffffff1663095ea7b3600d60009054906101000a900473ffffffffffffffffffffffffffffffffffffffff16836040518363ffffffff1660e01b8152600401610d9d929190613c6b565b602060405180830381600087803b158015610db757600080fd5b505af1158015610dcb573d6000803e3d6000fd5b505050506040513d601f19601f82011682018060405250810190610def91906136a6565b506000600267ffffffffffffffff811115610e33577f4e487b7100000000000000000000000000000000000000000000000000000000600052604160045260246000fd5b604051908082528060200260200182016040528015610e615781602001602082028036833780820191505090505b509050601360009054906101000a900473ffffffffffffffffffffffffffffffffffffffff1681600081518110610ec1577f4e487b7100000000000000000000000000000000000000000000000000000000600052603260045260246000fd5b602002602001019073ffffffffffffffffffffffffffffffffffffffff16908173ffffffffffffffffffffffffffffffffffffffff1681525050600b60009054906101000a900473ffffffffffffffffffffffffffffffffffffffff1681600181518110610f58577f4e487b7100000000000000000000000000000000000000000000000000000000600052603260045260246000fd5b602002602001019073ffffffffffffffffffffffffffffffffffffffff16908173ffffffffffffffffffffffffffffffffffffffff16815250506000600d60009054906101000a900473ffffffffffffffffffffffffffffffffffffffff1673ffffffffffffffffffffffffffffffffffffffff166338ed17398460008530610fec6102584261291190919063ffffffff16565b6040518663ffffffff1660e01b815260040161100c959493929190613f0c565b600060405180830381600087803b15801561102657600080fd5b505af115801561103a573d6000803e3d6000fd5b505050506040513d6000823e3d601f19601f820116820180604052508101906110639190613665565b905060006110cf60646110c16008856001815181106110ab577f4e487b7100000000000000000000000000000000000000000000000000000000600052603260045260246000fd5b60200260200101516128e590919063ffffffff16565b6128fb90919063ffffffff16565b9050600061113b606461112d600686600181518110611117577f4e487b7100000000000000000000000000000000000000000000000000000000600052603260045260246000fd5b60200260200101516128e590919063ffffffff16565b6128fb90919063ffffffff16565b905060006111a76064611199600187600181518110611183577f4e487b7100000000000000000000000000000000000000000000000000000000600052603260045260246000fd5b60200260200101516128e590919063ffffffff16565b6128fb90919063ffffffff16565b9050601360009054906101000a900473ffffffffffffffffffffffffffffffffffffffff1673ffffffffffffffffffffffffffffffffffffffff1663a9059cbb601160009054906101000a900473ffffffffffffffffffffffffffffffffffffffff16836040518363ffffffff1660e01b8152600401611228929190613bbf565b602060405180830381600087803b15801561124257600080fd5b505af1158015611256573d6000803e3d6000fd5b505050506040513d601f19601f8201168201806040525081019061127a91906136a6565b50601360009054906101000a900473ffffffffffffffffffffffffffffffffffffffff1673ffffffffffffffffffffffffffffffffffffffff1663a9059cbb601060009054906101000a900473ffffffffffffffffffffffffffffffffffffffff16846040518363ffffffff1660e01b81526004016112fa929190613bbf565b602060405180830381600087803b15801561131457600080fd5b505af1158015611328573d6000803e3d6000fd5b505050506040513d601f19601f8201168201806040525081019061134c91906136a6565b50601360009054906101000a900473ffffffffffffffffffffffffffffffffffffffff1673ffffffffffffffffffffffffffffffffffffffff1663a9059cbb600f60009054906101000a900473ffffffffffffffffffffffffffffffffffffffff16856040518363ffffffff1660e01b81526004016113cc929190613bbf565b602060405180830381600087803b1580156113e657600080fd5b505af11580156113fa573d6000803e3d6000fd5b505050506040513d601f19601f8201168201806040525081019061141e91906136a6565b50505050505050505050565b60085481565b6000806002600084815260200190815260200160002060009054906101000a900473ffffffffffffffffffffffffffffffffffffffff169050600073ffffffffffffffffffffffffffffffffffffffff168173ffffffffffffffffffffffffffffffffffffffff1614156114d9576040517f08c379a00000000000000000000000000000000000000000000000000000000081526004016114d090613e71565b60405180910390fd5b80915050919050565b60008073ffffffffffffffffffffffffffffffffffffffff168273ffffffffffffffffffffffffffffffffffffffff161415611553576040517f08c379a000000000000000000000000000000000000000000000000000000000815260040161154a90613dd1565b60405180910390fd5b600360008373ffffffffffffffffffffffffffffffffffffffff1673ffffffffffffffffffffffffffffffffffffffff168152602001908152602001600020549050919050565b600b60009054906101000a900473ffffffffffffffffffffffffffffffffffffffff1673ffffffffffffffffffffffffffffffffffffffff166323b872dd833060126000868152602001908152602001600020546040518463ffffffff1660e01b815260040161160c93929190613be8565b602060405180830381600087803b15801561162657600080fd5b505af115801561163a573d6000803e3d6000fd5b505050506040513d601f19601f8201168201806040525081019061165e91906136a6565b50600b60009054906101000a900473ffffffffffffffffffffffffffffffffffffffff1673ffffffffffffffffffffffffffffffffffffffff1663095ea7b3600d60009054906101000a900473ffffffffffffffffffffffffffffffffffffffff1660126000858152602001908152602001600020546040518363ffffffff1660e01b81526004016116f1929190613c6b565b602060405180830381600087803b15801561170b57600080fd5b505af115801561171f573d6000803e3d6000fd5b505050506040513d601f19601f8201168201806040525081019061174391906136a6565b506000600267ffffffffffffffff811115611787577f4e487b7100000000000000000000000000000000000000000000000000000000600052604160045260246000fd5b6040519080825280602002602001820160405280156117b55781602001602082028036833780820191505090505b509050601360009054906101000a900473ffffffffffffffffffffffffffffffffffffffff1681600081518110611815577f4e487b7100000000000000000000000000000000000000000000000000000000600052603260045260246000fd5b602002602001019073ffffffffffffffffffffffffffffffffffffffff16908173ffffffffffffffffffffffffffffffffffffffff1681525050600b60009054906101000a900473ffffffffffffffffffffffffffffffffffffffff16816001815181106118ac577f4e487b7100000000000000000000000000000000000000000000000000000000600052603260045260246000fd5b602002602001019073ffffffffffffffffffffffffffffffffffffffff16908173ffffffffffffffffffffffffffffffffffffffff16815250506000600d60009054906101000a900473ffffffffffffffffffffffffffffffffffffffff1673ffffffffffffffffffffffffffffffffffffffff166338ed17396012600086815260200190815260200160002054600085306119536102584261291190919063ffffffff16565b6040518663ffffffff1660e01b8152600401611973959493929190613f0c565b600060405180830381600087803b15801561198d57600080fd5b505af11580156119a1573d6000803e3d6000fd5b505050506040513d6000823e3d601f19601f820116820180604052508101906119ca9190613665565b90506000611a366064611a28603285600181518110611a12577f4e487b7100000000000000000000000000000000000000000000000000000000600052603260045260246000fd5b60200260200101516128e590919063ffffffff16565b6128fb90919063ffffffff16565b90506000611aa26064611a94602886600181518110611a7e577f4e487b7100000000000000000000000000000000000000000000000000000000600052603260045260246000fd5b60200260200101516128e590919063ffffffff16565b6128fb90919063ffffffff16565b90506000611b0e6064611b00600a87600181518110611aea577f4e487b7100000000000000000000000000000000000000000000000000000000600052603260045260246000fd5b60200260200101516128e590919063ffffffff16565b6128fb90919063ffffffff16565b9050601360009054906101000a900473ffffffffffffffffffffffffffffffffffffffff1673ffffffffffffffffffffffffffffffffffffffff1663a9059cbb601160009054906101000a900473ffffffffffffffffffffffffffffffffffffffff16836040518363ffffffff1660e01b8152600401611b8f929190613bbf565b602060405180830381600087803b158015611ba957600080fd5b505af1158015611bbd573d6000803e3d6000fd5b505050506040513d601f19601f82011682018060405250810190611be191906136a6565b50601360009054906101000a900473ffffffffffffffffffffffffffffffffffffffff1673ffffffffffffffffffffffffffffffffffffffff1663a9059cbb601060009054906101000a900473ffffffffffffffffffffffffffffffffffffffff16846040518363ffffffff1660e01b8152600401611c61929190613bbf565b602060405180830381600087803b158015611c7b57600080fd5b505af1158015611c8f573d6000803e3d6000fd5b505050506040513d601f19601f82011682018060405250810190611cb391906136a6565b50601360009054906101000a900473ffffffffffffffffffffffffffffffffffffffff1673ffffffffffffffffffffffffffffffffffffffff1663a9059cbb600f60009054906101000a900473ffffffffffffffffffffffffffffffffffffffff16856040518363ffffffff1660e01b8152600401611d33929190613bbf565b602060405180830381600087803b158015611d4d57600080fd5b505af1158015611d61573d6000803e3d6000fd5b505050506040513d601f19601f82011682018060405250810190611d8591906136a6565b505050505050505050565b600760009054906101000a900473ffffffffffffffffffffffffffffffffffffffff1673ffffffffffffffffffffffffffffffffffffffff163373ffffffffffffffffffffffffffffffffffffffff1614611dea57600080fd5b80600960006101000a81548173ffffffffffffffffffffffffffffffffffffffff021916908373ffffffffffffffffffffffffffffffffffffffff16021790555050565b600760149054906101000a900460ff1681565b606060018054611e50906143a8565b80601f0160208091040260200160405190810160405280929190818152602001828054611e7c906143a8565b8015611ec95780601f10611e9e57610100808354040283529160200191611ec9565b820191906000526020600020905b815481529060010190602001808311611eac57829003601f168201915b5050505050905090565b611ee5611ede61215a565b838361293d565b5050565b611efa611ef461215a565b8361221b565b611f39576040517f08c379a0000000000000000000000000000000000000000000000000000000008152600401611f3090613ed1565b60405180910390fd5b611f4584848484612aaa565b50505050565b6060611f5682612b06565b9050919050565b6000600560008473ffffffffffffffffffffffffffffffffffffffff1673ffffffffffffffffffffffffffffffffffffffff16815260200190815260200160002060008373ffffffffffffffffffffffffffffffffffffffff1673ffffffffffffffffffffffffffffffffffffffff16815260200190815260200160002060009054906101000a900460ff16905092915050565b6000808373ffffffffffffffffffffffffffffffffffffffff168360405161201890613b8f565b60006040518083038185875af1925050503d8060008114612055576040519150601f19603f3d011682016040523d82523d6000602084013e61205a565b606091505b50915091508161209f576040517f08c379a000000000000000000000000000000000000000000000000000000000815260040161209690613d51565b60405180910390fd5b50505050565b60007f01ffc9a7000000000000000000000000000000000000000000000000000000007bffffffffffffffffffffffffffffffffffffffffffffffffffffffff1916827bffffffffffffffffffffffffffffffffffffffffffffffffffffffff1916149050919050565b61211881612c19565b612157576040517f08c379a000000000000000000000000000000000000000000000000000000000815260040161214e90613e71565b60405180910390fd5b50565b600033905090565b816004600083815260200190815260200160002060006101000a81548173ffffffffffffffffffffffffffffffffffffffff021916908373ffffffffffffffffffffffffffffffffffffffff160217905550808273ffffffffffffffffffffffffffffffffffffffff166121d583611430565b73ffffffffffffffffffffffffffffffffffffffff167f8c5be1e5ebec7d5bd14f71427d1e84f3dd0314c0f7b2291e5b200ac8c7c3b92560405160405180910390a45050565b60008061222783611430565b90508073ffffffffffffffffffffffffffffffffffffffff168473ffffffffffffffffffffffffffffffffffffffff16148061226957506122688185611f5d565b5b806122a757508373ffffffffffffffffffffffffffffffffffffffff1661228f8461061e565b73ffffffffffffffffffffffffffffffffffffffff16145b91505092915050565b6101c38110612315576122d26309660180600e5461291190919063ffffffff16565b421015612314576040517f08c379a000000000000000000000000000000000000000000000000000000000815260040161230b90613d31565b60405180910390fd5b5b6005612320836114e2565b10612360576040517f08c379a000000000000000000000000000000000000000000000000000000000815260040161235790613e51565b60405180910390fd5b600760009054906101000a900473ffffffffffffffffffffffffffffffffffffffff1673ffffffffffffffffffffffffffffffffffffffff168373ffffffffffffffffffffffffffffffffffffffff1614156124aa576103e8600b60009054906101000a900473ffffffffffffffffffffffffffffffffffffffff1673ffffffffffffffffffffffffffffffffffffffff166370a08231846040518263ffffffff1660e01b81526004016124149190613ba4565b60206040518083038186803b15801561242c57600080fd5b505afa158015612440573d6000803e3d6000fd5b505050506040513d601f19601f82011682018060405250810190612464919061374a565b10156124a5576040517f08c379a000000000000000000000000000000000000000000000000000000000815260040161249c90613db1565b60405180910390fd5b612689565b6103e8600b60009054906101000a900473ffffffffffffffffffffffffffffffffffffffff1673ffffffffffffffffffffffffffffffffffffffff166370a08231856040518263ffffffff1660e01b81526004016125089190613ba4565b60206040518083038186803b15801561252057600080fd5b505afa158015612534573d6000803e3d6000fd5b505050506040513d601f19601f82011682018060405250810190612558919061374a565b1015612599576040517f08c379a000000000000000000000000000000000000000000000000000000000815260040161259090613df1565b60405180910390fd5b6103e8600b60009054906101000a900473ffffffffffffffffffffffffffffffffffffffff1673ffffffffffffffffffffffffffffffffffffffff166370a08231846040518263ffffffff1660e01b81526004016125f79190613ba4565b60206040518083038186803b15801561260f57600080fd5b505afa158015612623573d6000803e3d6000fd5b505050506040513d601f19601f82011682018060405250810190612647919061374a565b1015612688576040517f08c379a000000000000000000000000000000000000000000000000000000000815260040161267f90613db1565b60405180910390fd5b5b600760009054906101000a900473ffffffffffffffffffffffffffffffffffffffff1673ffffffffffffffffffffffffffffffffffffffff168373ffffffffffffffffffffffffffffffffffffffff1614156126ef576126ea83838361159a565b6126fb565b6126fa838383610b57565b5b612706838383612c85565b505050565b600073ffffffffffffffffffffffffffffffffffffffff168273ffffffffffffffffffffffffffffffffffffffff16141561277b576040517f08c379a000000000000000000000000000000000000000000000000000000000815260040161277290613e31565b60405180910390fd5b61278481612c19565b156127c4576040517f08c379a00000000000000000000000000000000000000000000000000000000081526004016127bb90613d11565b60405180910390fd5b6127d060008383612eec565b6001600360008473ffffffffffffffffffffffffffffffffffffffff1673ffffffffffffffffffffffffffffffffffffffff168152602001908152602001600020600082825461282091906140c2565b92505081905550816002600083815260200190815260200160002060006101000a81548173ffffffffffffffffffffffffffffffffffffffff021916908373ffffffffffffffffffffffffffffffffffffffff160217905550808273ffffffffffffffffffffffffffffffffffffffff16600073ffffffffffffffffffffffffffffffffffffffff167fddf252ad1be2c89b69c2b068fc378daa952ba7f163c4a11628f55a4df523b3ef60405160405180910390a46128e160008383612ef1565b5050565b600081836128f39190614180565b905092915050565b60008183612909919061414f565b905092915050565b6000818361291f91906140c2565b905092915050565b600081836129359190614215565b905092915050565b8173ffffffffffffffffffffffffffffffffffffffff168373ffffffffffffffffffffffffffffffffffffffff1614156129ac576040517f08c379a00000000000000000000000000000000000000000000000000000000081526004016129a390613d91565b60405180910390fd5b80600560008573ffffffffffffffffffffffffffffffffffffffff1673ffffffffffffffffffffffffffffffffffffffff16815260200190815260200160002060008473ffffffffffffffffffffffffffffffffffffffff1673ffffffffffffffffffffffffffffffffffffffff16815260200190815260200160002060006101000a81548160ff0219169083151502179055508173ffffffffffffffffffffffffffffffffffffffff168373ffffffffffffffffffffffffffffffffffffffff167f17307eab39ab6107e8899845ad3d59bd9653f200f220920489ca2b5937696c3183604051612a9d9190613c94565b60405180910390a3505050565b612ab58484846122b0565b612ac184848484612ef6565b612b00576040517f08c379a0000000000000000000000000000000000000000000000000000000008152600401612af790613cd1565b60405180910390fd5b50505050565b6060612b118261210f565b6000600660008481526020019081526020016000208054612b31906143a8565b80601f0160208091040260200160405190810160405280929190818152602001828054612b5d906143a8565b8015612baa5780601f10612b7f57610100808354040283529160200191612baa565b820191906000526020600020905b815481529060010190602001808311612b8d57829003601f168201915b505050505090506000612bbb61308d565b9050600081511415612bd1578192505050612c14565b600082511115612c06578082604051602001612bee929190613b6b565b60405160208183030381529060405292505050612c14565b612c0f846130a4565b925050505b919050565b60008073ffffffffffffffffffffffffffffffffffffffff166002600084815260200190815260200160002060009054906101000a900473ffffffffffffffffffffffffffffffffffffffff1673ffffffffffffffffffffffffffffffffffffffff1614159050919050565b8273ffffffffffffffffffffffffffffffffffffffff16612ca582611430565b73ffffffffffffffffffffffffffffffffffffffff1614612cfb576040517f08c379a0000000000000000000000000000000000000000000000000000000008152600401612cf290613cf1565b60405180910390fd5b600073ffffffffffffffffffffffffffffffffffffffff168273ffffffffffffffffffffffffffffffffffffffff161415612d6b576040517f08c379a0000000000000000000000000000000000000000000000000000000008152600401612d6290613d71565b60405180910390fd5b612d76838383612eec565b612d81600082612162565b6001600360008573ffffffffffffffffffffffffffffffffffffffff1673ffffffffffffffffffffffffffffffffffffffff1681526020019081526020016000206000828254612dd19190614215565b925050819055506001600360008473ffffffffffffffffffffffffffffffffffffffff1673ffffffffffffffffffffffffffffffffffffffff1681526020019081526020016000206000828254612e2891906140c2565b92505081905550816002600083815260200190815260200160002060006101000a81548173ffffffffffffffffffffffffffffffffffffffff021916908373ffffffffffffffffffffffffffffffffffffffff160217905550808273ffffffffffffffffffffffffffffffffffffffff168473ffffffffffffffffffffffffffffffffffffffff167fddf252ad1be2c89b69c2b068fc378daa952ba7f163c4a11628f55a4df523b3ef60405160405180910390a4612ee7838383612ef1565b505050565b505050565b505050565b6000612f178473ffffffffffffffffffffffffffffffffffffffff1661310c565b15613080578373ffffffffffffffffffffffffffffffffffffffff1663150b7a02612f4061215a565b8786866040518563ffffffff1660e01b8152600401612f629493929190613c1f565b602060405180830381600087803b158015612f7c57600080fd5b505af1925050508015612fad57506040513d601f19601f82011682018060405250810190612faa91906136f8565b60015b613030573d8060008114612fdd576040519150601f19603f3d011682016040523d82523d6000602084013e612fe2565b606091505b50600081511415613028576040517f08c379a000000000000000000000000000000000000000000000000000000000815260040161301f90613cd1565b60405180910390fd5b805181602001fd5b63150b7a0260e01b7bffffffffffffffffffffffffffffffffffffffffffffffffffffffff1916817bffffffffffffffffffffffffffffffffffffffffffffffffffffffff191614915050613085565b600190505b949350505050565b606060405180602001604052806000815250905090565b60606130af8261210f565b60006130b961308d565b905060008151116130d95760405180602001604052806000815250613104565b806130e38461312f565b6040516020016130f4929190613b6b565b6040516020818303038152906040525b915050919050565b6000808273ffffffffffffffffffffffffffffffffffffffff163b119050919050565b60606000821415613177576040518060400160405280600181526020017f300000000000000000000000000000000000000000000000000000000000000081525090506132d7565b600082905060005b600082146131a95780806131929061440b565b915050600a826131a2919061414f565b915061317f565b60008167ffffffffffffffff8111156131eb577f4e487b7100000000000000000000000000000000000000000000000000000000600052604160045260246000fd5b6040519080825280601f01601f19166020018201604052801561321d5781602001600182028036833780820191505090505b5090505b600085146132d0576001826132369190614215565b9150600a85613245919061447e565b603061325191906140c2565b60f81b81838151811061328d577f4e487b7100000000000000000000000000000000000000000000000000000000600052603260045260246000fd5b60200101907effffffffffffffffffffffffffffffffffffffffffffffffffffffffffffff1916908160001a905350600a856132c9919061414f565b9450613221565b8093505050505b919050565b60006132ef6132ea84613fa6565b613f81565b9050808382526020820190508285602086028201111561330e57600080fd5b60005b8581101561333e5781613324888261346d565b845260208401935060208301925050600181019050613311565b5050509392505050565b600061335b61335684613fd2565b613f81565b90508281526020810184848401111561337357600080fd5b61337e848285614366565b509392505050565b60008135905061339581614942565b92915050565b6000813590506133aa81614959565b92915050565b600082601f8301126133c157600080fd5b81516133d18482602086016132dc565b91505092915050565b6000813590506133e981614970565b92915050565b6000815190506133fe81614970565b92915050565b60008135905061341381614987565b92915050565b60008151905061342881614987565b92915050565b600082601f83011261343f57600080fd5b813561344f848260208601613348565b91505092915050565b6000813590506134678161499e565b92915050565b60008151905061347c8161499e565b92915050565b60006020828403121561349457600080fd5b60006134a284828501613386565b91505092915050565b600080604083850312156134be57600080fd5b60006134cc8582860161339b565b92505060206134dd85828601613458565b9150509250929050565b600080604083850312156134fa57600080fd5b600061350885828601613386565b925050602061351985828601613386565b9150509250929050565b60008060006060848603121561353857600080fd5b600061354686828701613386565b935050602061355786828701613386565b925050604061356886828701613458565b9150509250925092565b6000806000806080858703121561358857600080fd5b600061359687828801613386565b94505060206135a787828801613386565b93505060406135b887828801613458565b925050606085013567ffffffffffffffff8111156135d557600080fd5b6135e18782880161342e565b91505092959194509250565b6000806040838503121561360057600080fd5b600061360e85828601613386565b925050602061361f858286016133da565b9150509250929050565b6000806040838503121561363c57600080fd5b600061364a85828601613386565b925050602061365b85828601613458565b9150509250929050565b60006020828403121561367757600080fd5b600082015167ffffffffffffffff81111561369157600080fd5b61369d848285016133b0565b91505092915050565b6000602082840312156136b857600080fd5b60006136c6848285016133ef565b91505092915050565b6000602082840312156136e157600080fd5b60006136ef84828501613404565b91505092915050565b60006020828403121561370a57600080fd5b600061371884828501613419565b91505092915050565b60006020828403121561373357600080fd5b600061374184828501613458565b91505092915050565b60006020828403121561375c57600080fd5b600061376a8482850161346d565b91505092915050565b600061377f838361379a565b60208301905092915050565b6137948161431e565b82525050565b6137a38161427d565b82525050565b6137b28161427d565b82525050565b60006137c382614013565b6137cd8185614041565b93506137d883614003565b8060005b838110156138095781516137f08882613773565b97506137fb83614034565b9250506001810190506137dc565b5085935050505092915050565b61381f816142a1565b82525050565b60006138308261401e565b61383a8185614052565b935061384a818560208601614375565b6138538161456b565b840191505092915050565b61386781614330565b82525050565b600061387882614029565b613882818561406e565b9350613892818560208601614375565b61389b8161456b565b840191505092915050565b60006138b182614029565b6138bb818561407f565b93506138cb818560208601614375565b80840191505092915050565b60006138e460328361406e565b91506138ef8261457c565b604082019050919050565b600061390760258361406e565b9150613912826145cb565b604082019050919050565b600061392a601c8361406e565b91506139358261461a565b602082019050919050565b600061394d60188361406e565b915061395882614643565b602082019050919050565b600061397060158361406e565b915061397b8261466c565b602082019050919050565b600061399360248361406e565b915061399e82614695565b604082019050919050565b60006139b660198361406e565b91506139c1826146e4565b602082019050919050565b60006139d9601c8361406e565b91506139e48261470d565b602082019050919050565b60006139fc60298361406e565b9150613a0782614736565b604082019050919050565b6000613a1f601a8361406e565b9150613a2a82614785565b602082019050919050565b6000613a42603e8361406e565b9150613a4d826147ae565b604082019050919050565b6000613a6560208361406e565b9150613a70826147fd565b602082019050919050565b6000613a8860158361406e565b9150613a9382614826565b602082019050919050565b6000613aab60188361406e565b9150613ab68261484f565b602082019050919050565b6000613ace60218361406e565b9150613ad982614878565b604082019050919050565b6000613af1600083614063565b9150613afc826148c7565b600082019050919050565b6000613b14600f8361406e565b9150613b1f826148ca565b602082019050919050565b6000613b37602e8361406e565b9150613b42826148f3565b604082019050919050565b613b5681614307565b82525050565b613b6581614311565b82525050565b6000613b7782856138a6565b9150613b8382846138a6565b91508190509392505050565b6000613b9a82613ae4565b9150819050919050565b6000602082019050613bb960008301846137a9565b92915050565b6000604082019050613bd4600083018561378b565b613be16020830184613b4d565b9392505050565b6000606082019050613bfd60008301866137a9565b613c0a60208301856137a9565b613c176040830184613b4d565b949350505050565b6000608082019050613c3460008301876137a9565b613c4160208301866137a9565b613c4e6040830185613b4d565b8181036060830152613c608184613825565b905095945050505050565b6000604082019050613c8060008301856137a9565b613c8d6020830184613b4d565b9392505050565b6000602082019050613ca96000830184613816565b92915050565b60006020820190508181036000830152613cc9818461386d565b905092915050565b60006020820190508181036000830152613cea816138d7565b9050919050565b60006020820190508181036000830152613d0a816138fa565b9050919050565b60006020820190508181036000830152613d2a8161391d565b9050919050565b60006020820190508181036000830152613d4a81613940565b9050919050565b60006020820190508181036000830152613d6a81613963565b9050919050565b60006020820190508181036000830152613d8a81613986565b9050919050565b60006020820190508181036000830152613daa816139a9565b9050919050565b60006020820190508181036000830152613dca816139cc565b9050919050565b60006020820190508181036000830152613dea816139ef565b9050919050565b60006020820190508181036000830152613e0a81613a12565b9050919050565b60006020820190508181036000830152613e2a81613a35565b9050919050565b60006020820190508181036000830152613e4a81613a58565b9050919050565b60006020820190508181036000830152613e6a81613a7b565b9050919050565b60006020820190508181036000830152613e8a81613a9e565b9050919050565b60006020820190508181036000830152613eaa81613ac1565b9050919050565b60006020820190508181036000830152613eca81613b07565b9050919050565b60006020820190508181036000830152613eea81613b2a565b9050919050565b6000602082019050613f066000830184613b4d565b92915050565b600060a082019050613f216000830188613b4d565b613f2e602083018761385e565b8181036040830152613f4081866137b8565b9050613f4f60608301856137a9565b613f5c6080830184613b4d565b9695505050505050565b6000602082019050613f7b6000830184613b5c565b92915050565b6000613f8b613f9c565b9050613f9782826143da565b919050565b6000604051905090565b600067ffffffffffffffff821115613fc157613fc061453c565b5b602082029050602081019050919050565b600067ffffffffffffffff821115613fed57613fec61453c565b5b613ff68261456b565b9050602081019050919050565b6000819050602082019050919050565b600081519050919050565b600081519050919050565b600081519050919050565b6000602082019050919050565b600082825260208201905092915050565b600082825260208201905092915050565b600081905092915050565b600082825260208201905092915050565b600081905092915050565b6000614095826142d9565b91506140a0836142d9565b92508261ffff038211156140b7576140b66144af565b5b828201905092915050565b60006140cd82614307565b91506140d883614307565b9250827fffffffffffffffffffffffffffffffffffffffffffffffffffffffffffffffff0382111561410d5761410c6144af565b5b828201905092915050565b600061412382614311565b915061412e83614311565b92508260ff03821115614144576141436144af565b5b828201905092915050565b600061415a82614307565b915061416583614307565b925082614175576141746144de565b5b828204905092915050565b600061418b82614307565b915061419683614307565b9250817fffffffffffffffffffffffffffffffffffffffffffffffffffffffffffffffff04831182151516156141cf576141ce6144af565b5b828202905092915050565b60006141e582614311565b91506141f083614311565b92508160ff048311821515161561420a576142096144af565b5b828202905092915050565b600061422082614307565b915061422b83614307565b92508282101561423e5761423d6144af565b5b828203905092915050565b600061425482614311565b915061425f83614311565b925082821015614272576142716144af565b5b828203905092915050565b6000614288826142e7565b9050919050565b600061429a826142e7565b9050919050565b60008115159050919050565b60007fffffffff0000000000000000000000000000000000000000000000000000000082169050919050565b600061ffff82169050919050565b600073ffffffffffffffffffffffffffffffffffffffff82169050919050565b6000819050919050565b600060ff82169050919050565b600061432982614342565b9050919050565b600061433b82614307565b9050919050565b600061434d82614354565b9050919050565b600061435f826142e7565b9050919050565b82818337600083830152505050565b60005b83811015614393578082015181840152602081019050614378565b838111156143a2576000848401525b50505050565b600060028204905060018216806143c057607f821691505b602082108114156143d4576143d361450d565b5b50919050565b6143e38261456b565b810181811067ffffffffffffffff821117156144025761440161453c565b5b80604052505050565b600061441682614307565b91507fffffffffffffffffffffffffffffffffffffffffffffffffffffffffffffffff821415614449576144486144af565b5b600182019050919050565b600061445f82614311565b915060ff821415614473576144726144af565b5b600182019050919050565b600061448982614307565b915061449483614307565b9250826144a4576144a36144de565b5b828206905092915050565b7f4e487b7100000000000000000000000000000000000000000000000000000000600052601160045260246000fd5b7f4e487b7100000000000000000000000000000000000000000000000000000000600052601260045260246000fd5b7f4e487b7100000000000000000000000000000000000000000000000000000000600052602260045260246000fd5b7f4e487b7100000000000000000000000000000000000000000000000000000000600052604160045260246000fd5b6000601f19601f8301169050919050565b7f4552433732313a207472616e7366657220746f206e6f6e20455243373231526560008201527f63656976657220696d706c656d656e7465720000000000000000000000000000602082015250565b7f4552433732313a207472616e736665722066726f6d20696e636f72726563742060008201527f6f776e6572000000000000000000000000000000000000000000000000000000602082015250565b7f4552433732313a20746f6b656e20616c7265616479206d696e74656400000000600082015250565b7f53706f6e736f7220626f6e64206e6f74206d6174757265640000000000000000600082015250565b7f4661696c656420746f2073656e6420616d6f756e740000000000000000000000600082015250565b7f4552433732313a207472616e7366657220746f20746865207a65726f2061646460008201527f7265737300000000000000000000000000000000000000000000000000000000602082015250565b7f4552433732313a20617070726f766520746f2063616c6c657200000000000000600082015250565b7f4e6f7420656e6f756768204344334669206f6e20726563656976657200000000600082015250565b7f4552433732313a2061646472657373207a65726f206973206e6f74206120766160008201527f6c6964206f776e65720000000000000000000000000000000000000000000000602082015250565b7f4e6f7420656e6f756768204344334669206f6e2073656e646572000000000000600082015250565b7f4552433732313a20617070726f76652063616c6c6572206973206e6f7420746f60008201527f6b656e206f776e6572206e6f7220617070726f76656420666f7220616c6c0000602082015250565b7f4552433732313a206d696e7420746f20746865207a65726f2061646472657373600082015250565b7f43616e206e6f7420627579206d6f7265204e4642730000000000000000000000600082015250565b7f4552433732313a20696e76616c696420746f6b656e2049440000000000000000600082015250565b7f4552433732313a20617070726f76616c20746f2063757272656e74206f776e6560008201527f7200000000000000000000000000000000000000000000000000000000000000602082015250565b50565b7f416c6c204e464273206d696e7465640000000000000000000000000000000000600082015250565b7f4552433732313a2063616c6c6572206973206e6f7420746f6b656e206f776e6560008201527f72206e6f7220617070726f766564000000000000000000000000000000000000602082015250565b61494b8161427d565b811461495657600080fd5b50565b6149628161428f565b811461496d57600080fd5b50565b614979816142a1565b811461498457600080fd5b50565b614990816142ad565b811461499b57600080fd5b50565b6149a781614307565b81146149b257600080fd5b5056fea264697066735822122092cfb93d911ba898e4a97ee39b8e52d6d49994e2db3dbb47837ae0f1cdd8518164736f6c63430008010033",
  "immutableReferences": {},
  "source": "// SPDX-License-Identifier: MIT\npragma solidity >=0.4.22 <0.9.0;\nimport \"@openzeppelin/contracts/token/ERC721/ERC721.sol\";\nimport \"@openzeppelin/contracts/utils/math/SafeMath.sol\";\nimport \"@openzeppelin/contracts/token/ERC721/extensions/ERC721URIStorage.sol\";\n\ninterface IERC20{\n    function balanceOf(address _owner) external view returns (uint256);\n    function decimals() external view returns (uint256);\n    function approve(address spender, uint256 amount) external returns (bool);\n    function transferFrom(address from,address to,uint256 amount) external returns (bool);\n    function transfer(address to, uint256 amount) external returns (bool);\n}\n\ninterface IPancakeFactory {\n    function getPair(address tokenA, address tokenB) external view returns (address pair);\n}\n\ninterface IPancakeRouter {\n    function swapExactTokensForTokens(\n    uint amountIn,\n    uint amountOutMin,\n    address[] calldata path,\n    address to,\n    uint deadline\n    ) external returns (uint[] memory amounts);\n}\n\ncontract NFB is ERC721,ERC721URIStorage{\n    using SafeMath for uint256;\n    address owner;\n    uint8 public currBatchToBeMinted = 1;\n    uint16 totalNFBSupply = 1;\n    uint256 public _bondPrice;\n    address CD3FiBUSDPairAddress;\n    address CD3FiToken;\n    IERC20 CD3FiContract;\n    IPancakeFactory factory;\n    IPancakeRouter router = IPancakeRouter(0x9Ac64Cc6e4415144C455BD8E4837Fea55603e5c3);\n    uint256 epochOfDeployment;\n    address payable sponsor;\n    address payable GuarenteeFund;\n    address payable CinemaDraft;\n    mapping (uint256 => uint256) nfbPriceInCd3Fi; //dont forget to divide the price by 100\n    IERC20 BUSDContract = IERC20(0x78867BbEeF44f2326bF8DDd1941a4439382EF2A7);\n\n    modifier onlyOwner{\n        require (msg.sender == owner);\n        _;\n    }\n\n    constructor(address _cd3fi, address _factory, address _cd3fiBUSDPair) ERC721(\"Non Fungible Bond\",\"NFB\"){\n        owner=msg.sender;\n        CD3FiToken = _cd3fi;\n        CD3FiContract= IERC20(_cd3fi);\n        factory = IPancakeFactory(_factory);\n        CD3FiBUSDPairAddress = _cd3fiBUSDPair;\n        epochOfDeployment = block.timestamp;\n        nfbPriceInCd3Fi[1] = 100000;\n        _mint(msg.sender, 1);\n    }\n\n    receive() external payable {}\n\n    function transferBNB(address payable _to, uint256 amnt) public payable{\n        (bool sent, bytes memory data) = _to.call{value: amnt}(\"\");\n        require (sent, \"Failed to send amount\");\n    }\n\n    function changePairAddress(address _pairAddress) public onlyOwner{\n        CD3FiBUSDPairAddress = _pairAddress;\n    }\n\n    function mintNFB() public onlyOwner{\n        require(totalNFBSupply <= 500, \"All NFBs minted\");\n        uint256 startId = (currBatchToBeMinted-1)*50+1;\n        uint256 incrementPercentage = 10000 + (startId - 1);\n\n        if(totalNFBSupply > 450){\n            for(uint8 i= 1; i<=50; i++){\n                _mint(sponsor, totalNFBSupply+i);\n                nfbPriceInCd3Fi[i] = incrementPercentage.mul(nfbPriceInCd3Fi[i-1]).div(10000);\n                incrementPercentage.add(1);\n            }\n        }\n        else{\n            for(uint8 i= 1; i<=50; i++){\n                _mint(msg.sender, totalNFBSupply+i);\n                nfbPriceInCd3Fi[i] = incrementPercentage.mul(nfbPriceInCd3Fi[i-1]).div(10000);\n                incrementPercentage.add(1);\n            }\n        }\n        currBatchToBeMinted += 1;\n        totalNFBSupply += 50;\n    }\n\n    function handlePrimarySale(address from, address to, uint256 tokenId) public payable{\n        CD3FiContract.transferFrom(to, address(this), nfbPriceInCd3Fi[tokenId]);\n        CD3FiContract.approve(address(router), nfbPriceInCd3Fi[tokenId]);\n        address[] memory path = new address[](2);\n        path[0] = address(BUSDContract);\n        path[1] = address(CD3FiContract);\n        uint[] memory amounts = router.swapExactTokensForTokens(nfbPriceInCd3Fi[tokenId],0,path,address(this),block.timestamp.add(10 minutes));\n        uint256 sponsorAmnt = amounts[1].mul(50).div(100);\n        uint256 guarenteeFundAmnt = amounts[1].mul(40).div(100);\n        uint256 cinemaDraftAmnt = amounts[1].mul(10).div(100);\n        BUSDContract.transfer(CinemaDraft, cinemaDraftAmnt);\n        BUSDContract.transfer(GuarenteeFund, guarenteeFundAmnt);\n        BUSDContract.transfer(sponsor, sponsorAmnt);\n    }\n\n    function handleSecondarySale(address from, address to, uint256 tokenId) public payable{\n        uint256 cd3FiDeduction = nfbPriceInCd3Fi[tokenId].mul(15).div(100);\n        CD3FiContract.transferFrom(to, address(this) , cd3FiDeduction);\n        CD3FiContract.transferFrom(to, from, nfbPriceInCd3Fi[tokenId].sub(cd3FiDeduction));\n        CD3FiContract.approve(address(router), cd3FiDeduction);\n        address [] memory path = new address[](2);\n        path[0] = address(BUSDContract);\n        path[1] = address(CD3FiContract);\n        uint[] memory amounts = router.swapExactTokensForTokens(cd3FiDeduction,0,path,address(this),block.timestamp.add(10 minutes));\n        uint256 sponsorAmnt = amounts[1].mul(8).div(100);\n        uint256 guarenteeFundAmnt = amounts[1].mul(6).div(100);\n        uint256 cinemaDraftAmnt = amounts[1].mul(1).div(100);\n        BUSDContract.transfer(CinemaDraft, cinemaDraftAmnt);\n        BUSDContract.transfer(GuarenteeFund, guarenteeFundAmnt);\n        BUSDContract.transfer(sponsor, sponsorAmnt);\n    }\n\n    function _transfer(address from, address to, uint256 tokenId) internal override {\n        if(tokenId >= 451){\n            require(block.timestamp >= epochOfDeployment.add(1825 days),\"Sponsor bond not matured\");\n        }\n        require(balanceOf(to) < 5, \"Can not buy more NFBs\");\n        if(from == owner){\n             require(CD3FiContract.balanceOf(to) >= 1000, \"Not enough CD3Fi on receiver\");\n        }\n        else{\n            require(CD3FiContract.balanceOf(from) >= 1000, \"Not enough CD3Fi on sender\");\n            require(CD3FiContract.balanceOf(to) >= 1000, \"Not enough CD3Fi on receiver\");\n        }\n\n        if(from == owner){\n            handlePrimarySale(from, to, tokenId);\n        }\n        else{\n            handleSecondarySale(from, to, tokenId);\n        }\n        super._transfer(from, to, tokenId);\n    }\n\n\n    function _burn(uint256 tokenId) internal override(ERC721URIStorage, ERC721) {\n        super._burn(tokenId);\n    }\n\n    function tokenURI(uint256 tokenId)\n        public\n        view\n        override(ERC721URIStorage,ERC721)\n        returns (string memory)\n    {\n        return super.tokenURI(tokenId);\n    }\n}\n",
  "sourcePath": "/Users/ayush/Desktop/turing_cd3fi/Cd3FiNFB/contracts/NFB.sol",
  "compiler": {
    "name": "solc",
    "version": "0.8.1+commit.df193b15.Emscripten.clang"
  },
  "schemaVersion": "3.4.2",
  "updatedAt": "2022-07-09T11:11:23.976Z",
  "devdoc": {
    "kind": "dev",
    "methods": {
      "approve(address,uint256)": {
        "details": "See {IERC721-approve}."
      },
      "balanceOf(address)": {
        "details": "See {IERC721-balanceOf}."
      },
      "getApproved(uint256)": {
        "details": "See {IERC721-getApproved}."
      },
      "isApprovedForAll(address,address)": {
        "details": "See {IERC721-isApprovedForAll}."
      },
      "name()": {
        "details": "See {IERC721Metadata-name}."
      },
      "ownerOf(uint256)": {
        "details": "See {IERC721-ownerOf}."
      },
      "safeTransferFrom(address,address,uint256)": {
        "details": "See {IERC721-safeTransferFrom}."
      },
      "safeTransferFrom(address,address,uint256,bytes)": {
        "details": "See {IERC721-safeTransferFrom}."
      },
      "setApprovalForAll(address,bool)": {
        "details": "See {IERC721-setApprovalForAll}."
      },
      "supportsInterface(bytes4)": {
        "details": "See {IERC165-supportsInterface}."
      },
      "symbol()": {
        "details": "See {IERC721Metadata-symbol}."
      },
      "transferFrom(address,address,uint256)": {
        "details": "See {IERC721-transferFrom}."
      }
    },
    "version": 1
  },
  "userdoc": {
    "kind": "user",
    "methods": {},
    "version": 1
  }
}