{
  "contractName": "NFBHandlePayout",
  "abi": [
    {
      "inputs": [
        {
          "internalType": "address",
          "name": "_NFBTokenContractAddress",
          "type": "address"
        }
      ],
      "stateMutability": "nonpayable",
      "type": "constructor"
    },
    {
      "inputs": [],
      "name": "owner",
      "outputs": [
        {
          "internalType": "address",
          "name": "",
          "type": "address"
        }
      ],
      "stateMutability": "view",
      "type": "function"
    },
    {
      "inputs": [
        {
          "internalType": "address",
          "name": "sender",
          "type": "address"
        }
      ],
      "name": "checkEligibiltyForPayout",
      "outputs": [
        {
          "internalType": "bool",
          "name": "",
          "type": "bool"
        }
      ],
      "stateMutability": "view",
      "type": "function"
    },
    {
      "inputs": [
        {
          "internalType": "address payable",
          "name": "recepient",
          "type": "address"
        },
        {
          "internalType": "uint256",
          "name": "amnt",
          "type": "uint256"
        }
      ],
      "name": "_transferPayout",
      "outputs": [],
      "stateMutability": "payable",
      "type": "function"
    },
    {
      "inputs": [
        {
          "internalType": "address",
          "name": "recepient",
          "type": "address"
        }
      ],
      "name": "withdrawPayout",
      "outputs": [],
      "stateMutability": "nonpayable",
      "type": "function"
    }
  ],
  "bytecode": "0x608060405273e9e7cea3dedca5984780bafc599bd69add087d56600460006101000a81548173ffffffffffffffffffffffffffffffffffffffff021916908373ffffffffffffffffffffffffffffffffffffffff160217905550600460009054906101000a900473ffffffffffffffffffffffffffffffffffffffff16600560006101000a81548173ffffffffffffffffffffffffffffffffffffffff021916908373ffffffffffffffffffffffffffffffffffffffff1602179055503480156100c857600080fd5b50604051610bb4380380610bb483398181016040528101906100ea919061018d565b336000806101000a81548173ffffffffffffffffffffffffffffffffffffffff021916908373ffffffffffffffffffffffffffffffffffffffff1602179055504260028190555080600360006101000a81548173ffffffffffffffffffffffffffffffffffffffff021916908373ffffffffffffffffffffffffffffffffffffffff160217905550506101ff565b600081519050610187816101e8565b92915050565b60006020828403121561019f57600080fd5b60006101ad84828501610178565b91505092915050565b60006101c1826101c8565b9050919050565b600073ffffffffffffffffffffffffffffffffffffffff82169050919050565b6101f1816101b6565b81146101fc57600080fd5b50565b6109a68061020e6000396000f3fe60806040526004361061003f5760003560e01c80638da5cb5b146100445780639d31278a1461006f578063e17d9de214610098578063f8f7bfed146100d5575b600080fd5b34801561005057600080fd5b506100596100f1565b60405161006691906106bc565b60405180910390f35b34801561007b57600080fd5b506100966004803603810190610091919061056f565b610115565b005b3480156100a457600080fd5b506100bf60048036038101906100ba919061056f565b610367565b6040516100cc91906106d7565b60405180910390f35b6100ef60048036038101906100ea9190610598565b610451565b005b60008054906101000a900473ffffffffffffffffffffffffffffffffffffffff1681565b61011e81610367565b61015d576040517f08c379a000000000000000000000000000000000000000000000000000000000815260040161015490610712565b60405180910390fd5b6000600660008373ffffffffffffffffffffffffffffffffffffffff1673ffffffffffffffffffffffffffffffffffffffff168152602001908152602001600020905060008160000154116101e7576040517f08c379a00000000000000000000000000000000000000000000000000000000081526004016101de906106f2565b60405180910390fd5b610343600360009054906101000a900473ffffffffffffffffffffffffffffffffffffffff1673ffffffffffffffffffffffffffffffffffffffff166353d74fdf6040518163ffffffff1660e01b815260040160206040518083038186803b15801561025257600080fd5b505afa158015610266573d6000803e3d6000fd5b505050506040513d601f19601f8201168201806040525081019061028a91906105d4565b600560009054906101000a900473ffffffffffffffffffffffffffffffffffffffff1673ffffffffffffffffffffffffffffffffffffffff166370a08231306040518263ffffffff1660e01b81526004016102e591906106bc565b60206040518083038186803b1580156102fd57600080fd5b505afa158015610311573d6000803e3d6000fd5b505050506040513d601f19601f8201168201806040525081019061033591906105d4565b61050590919063ffffffff16565b8160000181905550610359338260000154610451565b600081600001819055505050565b6000630966018060025461037b919061076e565b42101561038b576000905061044c565b6000600360009054906101000a900473ffffffffffffffffffffffffffffffffffffffff1673ffffffffffffffffffffffffffffffffffffffff166370a08231846040518263ffffffff1660e01b81526004016103e891906106bc565b60206040518083038186803b15801561040057600080fd5b505afa158015610414573d6000803e3d6000fd5b505050506040513d601f19601f8201168201806040525081019061043891906105d4565b1415610447576000905061044c565b600190505b919050565b6000808373ffffffffffffffffffffffffffffffffffffffff1683604051610478906106a7565b60006040518083038185875af1925050503d80600081146104b5576040519150601f19603f3d011682016040523d82523d6000602084013e6104ba565b606091505b5091509150816104ff576040517f08c379a00000000000000000000000000000000000000000000000000000000081526004016104f690610732565b60405180910390fd5b50505050565b6000818361051391906107c4565b905092915050565b60008135905061052a8161092b565b92915050565b60008135905061053f81610942565b92915050565b60008135905061055481610959565b92915050565b60008151905061056981610959565b92915050565b60006020828403121561058157600080fd5b600061058f8482850161051b565b91505092915050565b600080604083850312156105ab57600080fd5b60006105b985828601610530565b92505060206105ca85828601610545565b9150509250929050565b6000602082840312156105e657600080fd5b60006105f48482850161055a565b91505092915050565b610606816107f5565b82525050565b61061581610819565b82525050565b600061062860158361075d565b9150610633826108ad565b602082019050919050565b600061064b600c8361075d565b9150610656826108d6565b602082019050919050565b600061066e600083610752565b9150610679826108ff565b600082019050919050565b6000610691600e8361075d565b915061069c82610902565b602082019050919050565b60006106b282610661565b9150819050919050565b60006020820190506106d160008301846105fd565b92915050565b60006020820190506106ec600083018461060c565b92915050565b6000602082019050818103600083015261070b8161061b565b9050919050565b6000602082019050818103600083015261072b8161063e565b9050919050565b6000602082019050818103600083015261074b81610684565b9050919050565b600081905092915050565b600082825260208201905092915050565b600061077982610845565b915061078483610845565b9250827fffffffffffffffffffffffffffffffffffffffffffffffffffffffffffffffff038211156107b9576107b861084f565b5b828201905092915050565b60006107cf82610845565b91506107da83610845565b9250826107ea576107e961087e565b5b828204905092915050565b600061080082610825565b9050919050565b600061081282610825565b9050919050565b60008115159050919050565b600073ffffffffffffffffffffffffffffffffffffffff82169050919050565b6000819050919050565b7f4e487b7100000000000000000000000000000000000000000000000000000000600052601160045260246000fd5b7f4e487b7100000000000000000000000000000000000000000000000000000000600052601260045260246000fd5b7f4e6f20616d6f756e7420746f2077697468647261770000000000000000000000600082015250565b7f4e6f7420656c696769626c650000000000000000000000000000000000000000600082015250565b50565b7f4661696c656420746f2073656e64000000000000000000000000000000000000600082015250565b610934816107f5565b811461093f57600080fd5b50565b61094b81610807565b811461095657600080fd5b50565b61096281610845565b811461096d57600080fd5b5056fea26469706673582212209a03ca13e36b601d2103aa8d690c6158fdc72f2427130c3bfc604a8a5409297b64736f6c63430008010033",
  "immutableReferences": {},
  "source": "// SPDX-License-Identifier: MIT\npragma solidity >=0.4.22 <0.9.0;\nimport \"@openzeppelin/contracts/utils/math/SafeMath.sol\";\n\ninterface INFB{\n    function balanceOf(address _owner) external view returns (uint256);\n    function totalHolders() external view returns(uint256);\n}\n\ninterface IBEP20{\n    function balanceOf(address _owner) external view returns (uint256);\n}\n\ncontract NFBHandlePayout{\n    using SafeMath for uint256;\n    address public owner;\n    uint256 _totalPayout;\n    uint256 deploymentEpoch;\n    INFB NFBTokenContract;\n\n    address BUSDContractAddress= address(0xe9e7CEA3DedcA5984780Bafc599bD69ADd087D56);\n    IBEP20 BUSDContract = IBEP20(BUSDContractAddress);\n\n    mapping (address => User) payoutInfo;\n\n    struct User{\n        uint256 payoutCredited;\n    }\n\n    constructor(address _NFBTokenContractAddress){\n        owner=msg.sender;\n        deploymentEpoch=block.timestamp;\n        NFBTokenContract= INFB(_NFBTokenContractAddress);\n    }\n\n    function checkEligibiltyForPayout(address sender) public view returns(bool){\n        if(block.timestamp < deploymentEpoch + 5 * 365 days) return false;\n        else if(NFBTokenContract.balanceOf(sender)==0) return false;\n        return true;\n    }\n\n    function _transferPayout(address payable recepient, uint256 amnt) public payable{\n        (bool sent, bytes memory data) = recepient.call{value: amnt}(\"\");\n        require (sent, \"Failed to send\");\n    }\n\n    function withdrawPayout(address recepient) public {\n        require(checkEligibiltyForPayout(recepient),\"Not eligible\");\n        User storage _user = payoutInfo[recepient];\n        require(_user.payoutCredited > 0, \"No amount to withdraw\");\n        _user.payoutCredited = BUSDContract.balanceOf(address(this)).div(NFBTokenContract.totalHolders());\n        _transferPayout(payable(msg.sender), _user.payoutCredited);\n        _user.payoutCredited = 0;\n    }\n\n}",
  "sourcePath": "/Users/ayush/Desktop/Cd3FiNFB/contracts/NFBHandlePayout.sol",
  "compiler": {
    "name": "solc",
    "version": "0.8.1+commit.df193b15.Emscripten.clang"
  },
  "schemaVersion": "3.4.2",
  "updatedAt": "2022-06-29T14:49:48.675Z",
  "devdoc": {
    "kind": "dev",
    "methods": {},
    "version": 1
  },
  "userdoc": {
    "kind": "user",
    "methods": {},
    "version": 1
  }
}